:020000041000EA
:1000000000B5324B212058609868022188439860DF
:10001000D860186158612E4B002199600221596106
:100020000121F02299502B49196001219960352056
:1000300000F044F80222904214D00621196600F024
:1000400034F8196E01211966002018661A6600F04E
:100050002CF8196E196E196E052000F02FF8012189
:100060000842F9D1002199601B49196000215960AB
:100070001A491B48016001219960EB211966A021F2
:10008000196600F012F800219960164914480160C1
:100090000121996001BC002800D000471248134993
:1000A000086003C880F30888084703B5996A0420EC
:1000B0000142FBD001200142F8D103BD02B5186610
:1000C0001866FFF7F2FF186E186E02BD00000240BE
:1000D000000000180000070000035F00212200005C
:1000E000F4000018222000A00001001008ED00E03C
:1000F00000000000000000000000000074B24E7A12
:1001000000200420F7010010C3010010C5010010F9
:10011000C1010010C1010010C1010010C101001097
:10012000C1010010C1010010C1010010C701001081
:10013000C1010010C1010010C9010010CB01001065
:10014000CD010010CD010010CD010010CD01001037
:10015000CD010010CD010010CD010010CD01001027
:10016000CD010010CD010010CD010010CD01001017
:10017000CD010010CD010010CD010010CD01001007
:10018000CD010010CD010010CD010010CD010010F7
:10019000CD010010CD010010CD010010CD010010E7
:1001A000CD010010CD010010CD010010CD010010D7
:1001B000CD010010CD010010CD010010CD010010C7
:1001C00000BE00BE00BE00BE00BE00BEEFF3058054
:1001D000103800BEF2EB8871D0760010F076001077
:1001E0003402001090A31AE700201F49086006C8D7
:1001F00081F3088810471D48006800282FD10DA4FE
:100200000ECC002902D000F012F8F9E71849194A7B
:10021000002000E001C19142FCD1174988471749ED
:1002200088471749884700BEFDE701C901C29A42C5
:10023000FBD37047F0760010C0000020000F0020B4
:1002400030850010000004200000042030850010DC
:10025000001004200010042000000000704709482E
:1002600002F0BAF80047000008ED00E0000000D0FE
:10027000000F0020602002204522001055030010CE
:10028000392300105756000006005250ABB360539C
:100290005474001006005250861C0302647400104F
:1002A000060052505422A29D747400100500525052
:1002B000DE65F46830850010F8B5C0460448054B8B
:1002C00010B5834203D0044B002B00D0984710BDDB
:1002D000000F0020000F0020000000000648074922
:1002E000091A8B10C90FC91810B5491003D0044B57
:1002F000002B00D0984710BD000F0020000F0020F9
:100300000000000010B5074C2378002B09D1FFF73F
:10031000D5FF054B002B02D0044800E000BF0123AD
:10032000237010BD701200200000000070720010D9
:10033000054B10B5002B03D00449054800E000BF71
:10034000FFF7CCFF10BDC046000000007412002073
:100350007072001010B502F0B3FC00F017F905F050
:10036000EFFFFEE770B500210D2420220D26114B72
:10037000114802255D5F114B00290FD1A54214D011
:1003800099690A42FCD11C60017801300D394C4258
:1003900061410478C9B2002CEED170BD99690A425E
:1003A000F1D099690A42F9D1EDE799690A42FCD185
:1003B0001E60E5E74C1F00204073001000800340E2
:1003C000E12170B5C0265D4CC0B04902200001F0AB
:1003D000E3FB0221002000F0C1F90221012000F01E
:1003E000BDF9236B564A36023340136008210023BF
:1003F0000122200001F094FC0121200001F0CEFC3C
:10040000E121504D4902280001F0C6FB02210420E1
:1004100000F0A4F90221052000F0A0F92B6B4A4A54
:1004200033402800136008210023012201F078FCEA
:100430000023464801AD2B7006F038F9A369DB06AE
:1004400007D41022A3691A42FCD12368A3691A4277
:10045000F8D0FFF787FF2A003D4B3E49374800F0B0
:1004600027F9FA20400006F021F92A003A4B3B49CF
:10047000324800F01DF9FA20400006F017F92A0072
:10048000374B38492D4800F013F9FA20400006F0A8
:100490000DF900232A003449284800F08BF8FA208F
:1004A000400006F003F900232A003049234800F0F9
:1004B00081F8FA20400006F0F9F800232A002C49C0
:1004C0001E4800F077F8FA20400006F0EFF800230D
:1004D0002A002849194800F06DF8FA20400006F07B
:1004E000E5F82A002449254B144800F063F8FA2067
:1004F000400006F0DBF82A002149144B0F4800F0B9
:1005000059F8FA20400006F0D1F8FA232A001D49D4
:100510005B000A4800F04EF8FFF724FFFA20400085
:1005200006F0C4F800232A001749044800F042F8F6
:10053000FA20800006F0BAF8FAE7C046004003400F
:1005400030500340008003403090034010270000EB
:10055000707200107C72001084720010A47200107F
:10056000B0720010C4720010D47200101873001022
:10057000447300105C730010707300108813000047
:1005800074730010887300109C7300100023802285
:1005900000B583B001930133009304490023520056
:1005A000034805F0A7FD03B000BDC046AC730010C2
:1005B000C1030010F0B54F464646D6469946394B22
:1005C000C0B5C3180F0016005A42534104005B0027
:1005D00038000025984606F081FDA84219D9424608
:1005E000314B795D9B5E8B424CD02022A3691A422D
:1005F000FCD110222160A3691A42FCD1236801209A
:10060000735506F053F83800013506F067FDA8422F
:10061000E5D84846013006F049F8A369DB063ED428
:10062000F92D0EDC1027A3691F42FCD1236801209D
:10063000735506F03BF8A36901351F4201D1FA2D2D
:10064000F1D100239846184B20279A460D2399464E
:10065000164C4346F25C534602215B5E934218D02F
:10066000A3691F42FCD10120226006F01FF801237C
:100670009C46E044A845ECDB2800E0BCBA46B14605
:10068000A846F0BD2022A3691A42FCD10D232360A5
:10069000ABE7A3691F42FCD14B462360E0E7002D86
:1006A000EAD0CEE70080FCBF4C1F00200080034052
:1006B000F0B5C6460400884617001E00102500B598
:1006C000A3691D4206D1A3691D42FCD12068A0691F
:1006D0000542F8D03A00414600232000FFF76AFFA8
:1006E0000A2005F0E3FF300006F0F8FC31000200BC
:1006F000380006F021FD0128E2D00D24002120223F
:100700000D26134B134802255D5F134B002912D1B0
:10071000A54217D099690A42FCD11C6001780130CA
:100720000D394C4261410478C9B2002CEED1002051
:1007300080BCB846F0BD99690A42EED099690A4278
:10074000F9D1EAE799690A42FCD11E60E2E7C046A6
:100750004C1F00204073001000800340094A10B570
:1007600094464024830063441A68C0006240803489
:1007700014408022520113431C60034B9C4660448A
:10078000416010BD04C0014000400140024B1868A8
:100790008007C00F7047C04600C0064070B5EFF339
:1007A000108C72B60D4D2B68002BFCD0BFF35F8F01
:1007B0000724CB08C618C05C01230C40A3401C00D2
:1007C0000440034207D118433070BFF35F8F2C60A1
:1007D0008CF3108870BD100001F0B2FD2C0100D028
:1007E000F8B54746CE46884680B5EFF3108C72B612
:1007F000214D2C68002CFCD0BFF35F8F9A422CD87F
:10080000D4080727055D061901241740BC402C4277
:100810001FD007210127894609E0D408055D061984
:100820004C4639001440A1400C00294211D001323D
:100830009342F2D201204042BFF35F8F00220E4B61
:100840001A608CF3108800280FDBC0BCB946B04694
:10085000F8BD254310003570EEE7BFF35F8F00232E
:100860002B608CF31088012040424346002BECD0D3
:10087000089801F065FDC0462C0100D00021044B12
:10088000044ABFF35F8F02C39342FAD17047C04658
:10089000000100D0800100D0044A1078431CDBB274
:1008A000172B00D9102313707047C046F00D00209D
:1008B00010B5064B064C82B00100009318221F238E
:1008C0002000FFF78DFF02B010BDC046B4730010CA
:1008D000E817002001238340002904D0034A136055
:1008E000034A13607047034A1360FBE780E200E0AD
:1008F00000E100E080E100E001238340014A136051
:100900007047C04600E200E0084B10309B68800052
:10091000C358002B07D0064A00209B1A2F229A4268
:100920004041C0B270470020FCE7C04600ED00E047
:10093000F40D0020024B10309B688000C0587047B7
:1009400000ED00E070B50D00EFF3108672B60F4AAF
:100950001368002BFCD0BFF35F8F0D4B10309B68EA
:1009600084001B590B4A934203D09D4201D001F0F1
:1009700005FD074B9B681D51BFF35F8FBFF35F8F72
:100980000022024B1A6086F3108870BD240100D04B
:1009900000ED00E0CD010010F0B557464E46DE46B2
:1009A0004546E0B585B0060000911700EFF3108BC7
:1009B00072B66A4A1368002BFCD0BFF35F8F002524
:1009C000674B5D579A46002D00DA8BE06B00654C53
:1009D00001935B199B009846A146C1444B46524681
:1009E0009B7910361370604BB6009B6899590B1BAE
:1009F0002F2B33D95D4B994200D0ACE0019B42468E
:100A00009C465B4B6544AD0063535A4B0232A218BF
:100A1000043B9B1A1B05584A5B0D651913436B80F9
:100A2000564B0121AB80FF23AB71009BEF71AB6094
:100A30004B460B4319004C4B9B689951BFF35F8F9A
:100A4000BFF35F8F0022454B1A608BF3108805B00F
:100A5000F0BCBB46B246A946A046F0BD01200A0044
:100A60008243D3798C46BB4231D845461300444972
:100A70001B1B5B415943090D3D4B63533D4B0235F5
:100A80006519043B5B1B1B053B4D5B0D2B43AA46C5
:100A90004D466B800425AC465546E044131F444444
:100AA0001B1B1B055B0D1D434B46997100999D80D7
:100AB00099604946DF71334B01431360BBE758002F
:100AC000C01880002018C179B94211D9020006234C
:100AD000D356002BF3DA0293131D9A462A4B614634
:100AE000039319E001F04AFC002553465D576DE77A
:100AF000908802934005131D9A46031561469C4653
:100B00004046D444634604302018181AE0230005F8
:100B1000400D1B021843039004235B429C46E144B2
:100B200050464B461B1A1B055B0D9C46124B95719C
:100B300098466346404603439380019B5A199200AE
:100B4000039BA418A380029B0E4AA371009B226002
:100B5000E771A3606FE701F011FC4FE7240100D0BB
:100B600058200220F40D002000ED00E0CD0100101F
:100B700000A1FFFF240E002000E0FFFF01BDFFFFEA
:100B8000AAAA00000148804701BD0000F0B5DE467A
:100B900057464E464546E0B50C0083B0EFF310884B
:100BA00072B65D4A1368002BFCD0BFF35F8F5B4BBE
:100BB0005B499A68030010339F00D5598D4239D0A4
:100BC000A5424AD0574EAA1B2F2A33D8012292465B
:100BD000824091464846544A126810400190484667
:100BE000524A1060BFF35F8FEFF305829346002AED
:100BF00035D0934201D001F0C1FB2A0053469A43FD
:100C00009068844208D175E04B005B189B00F31894
:100C10009868A04234D01A00062151560029F3DA10
:100C2000844253D0019B002B26D04A46404B1A6089
:100C30003D4B1A60394B9B68DD51BFF35F8FBFF3AB
:100C40005F8F0022344B1A6088F3108803B0F0BC29
:100C5000BB46B246A946A046F0BD0D00EAE72A0011
:100C600053469A4390688442D6D10620105613000A
:100C7000002809DA0D0031E04A462C4B1A60D9E70A
:100C800006201856002822DB42001118890074182B
:100C90008A46A1689960E179D971062161569971F6
:100CA000002925DBA488F11A640524155444091988
:100CB000E0240905490D24022143998013181D4A97
:100CC0009B001178F31899711070ABE71300594627
:100CD000002914D1FF3191711749918015490A7883
:100CE0009A71164A9B1B5B415A43120D0A7099E791
:100CF0001349E2E70620105613000028C4DA114A0F
:100D00001149D21A083A5002400D014399800F4907
:100D100052080A43DA8085E7240100D000ED00E0A4
:100D2000CD010010F40D002000E100E080E100E0C2
:100D300080E200E05820022001BDFFFFAAAA0000C7
:100D400001BD00002E0E002000F0FFFF00F8FFFFA5
:100D5000032310B50400074A18409446C0009C4382
:100D6000FC3383406444226881409A4313000B4360
:100D7000236010BD00E400E070B5EFF305810124AD
:100D80000443EFF3108C72B6214A1368002BFCD099
:100D9000BFF35F8F1F4B05001F4AED1A6D416A4379
:100DA000120D1E4D8900AE6852B27658A6421CD074
:100DB0000621595691421CD012215956914222D0F7
:100DC0001E215956914220D02A215956032491427E
:100DD00010D0134B19781A708171BFF35F8F002206
:100DE0000B4B1A608CF3108870BDAB680D4C5C50D7
:100DF000EFE700246100091989005B18FF21997150
:100E000009499980E5E70124F4E70224F2E7C046A6
:100E1000240100D0F40D0020AAAA000000ED00E09B
:100E200058200220CD01001001BDFFFF054B064AEE
:100E30001360064A136053609360D360136153617B
:100E4000936170478080808000E400E004E400E06B
:100E500010B5084B084C82B0010000930022052316
:100E60002000FFF7BDFC002801DB1F23181A02B089
:100E700010BDC046D07300105D200220024B9C467E
:100E800061448900016070474000003410B50400DF
:100E9000FFF702FD01002000FFF7F0FF01235B4296
:100EA0006360BFF35F8F10BD10B50400FFF7F4FC63
:100EB00001002000FFF7E2FF01235B426360002393
:100EC0002372BFF35F8F10BD10B504000120FFF740
:100ED000EFFC034BC3189B002360BFF35F8F10BD73
:100EE00040000034034B9C46614489000160BFF31D
:100EF0005F8F70474000003483680B4810B584460C
:100F0000614462441201090159189B185C684A68DF
:100F10000120944201D802D00020C0B210BD1A684E
:100F20000B689A42F9D8F7E7FFFFFF0F074810B5A3
:100F30000268EFF3108172B61368002BFCD0BFF388
:100F40005F8F04F07BFA0020002110BD301F0020CD
:100F5000F8B5574645464E46DE46E0B598460CABDA
:100F60001C780DAB1B78070091469A460568002C4B
:100F70005ED1AC7B002C3BD0660029683619033E5D
:100F800089194B78AB73002B00D1EB7300238B7066
:100F90004B700B702D4BE218BB6812019B184A4630
:100FA0001A6042465A600A9A9A600B9ADA600023E5
:100FB0008B704B700B706B7B9B46002B2BD02200F1
:100FC0005946A8686B6898472A68002816D05B467F
:100FD00058465B005B449619033BB070D118D35C54
:100FE000002B00D073705B460C706B735C4513D0A4
:100FF000F0BCBB46B246A946A046F8BD5B465B00C6
:101000005B44033BD3189C709119925D002A00D079
:101010005A705B460B706C734A464346387D00F04D
:101020005BFB051E0AD10E9B002BE1D01D70DFE794
:10103000660029683619033E8919ABE75346002B31
:10104000F1D12100386800F06BFDECE7FFFFFF0FE6
:10105000F0B5DE4657464E4645460023E0B58BB018
:101060000893684B8200D45800239B46099000F0F7
:10107000AFFA02000B006068EFF3108A72B65646B2
:1010800001680029FCD0B246BFF35F8F21684F7B17
:101090008C46002F2ED0A5685B49A9467918090116
:1010A000894449460868496805000E00AD1A9E410A
:1010B000002E5FDD02000B00099800F00DFB0023FD
:1010C00000229946002306920793002398466368FE
:1010D000BFF35F8F5A461A608AF310884346002B8D
:1010E00012D10028C3D10BB0F0BCBB46B246A94612
:1010F000A046F0BD002300229946002306920793E4
:10110000002300209846E2E7089B4946180238432E
:10111000C047626805000E00EFF3108A72B61368CC
:10112000002BFCD0BFF35F8F002E41DB2B0033433D
:1011300002D02369002B56D12368D97B002905D022
:101140001A68480041185218033A57709A7B002ACF
:1011500000D19F73DF73E268013FD35D0133D35544
:101160005B4623616368BFF35F8F5A461A608AF358
:1011700010887CE7002E02D1002D00D09AE70021D4
:10118000604600F04BFC4B461A685B68069207937A
:101190004B469B6898464B46DB689946E368DB19EB
:1011A000013B1B7808931B020343236100208EE759
:1011B0002369002BC0D0069A079B8021521BB341A4
:1011C00009068B4202D30122104B524200210491A6
:1011D0000131039149460191414620000297009157
:1011E000FFF7B6FEBCE700F0F3F92A00330012184F
:1011F0004B41802109068B42E8D30122034B524226
:10120000E4E7C046741C0020FFFFFF0FFFFFFF7FD5
:1012100010B5144C6368002B04D00A211248FFF764
:101220002DFE10BD2300114A1021206800F00CFB98
:10123000032000F0C1F9032000F0B6FA03200C49A6
:1012400000F004FAFFF728FB0A4B9C4603232375A2
:10125000D0231B061B6860446375074B80006060E9
:10126000DC60DAE73C0E0020301F0020F90E001091
:101270005110001040000034741C002000487047DA
:101280003C0E0020F0B557464E464546DE46E0B5DA
:1012900085B0019310AB1B780600039300239A4698
:1012A000984600927268EFF3108B72B61368002BA9
:1012B000FCD0BFF35F8F3568AC7B002C00D16FE0B2
:1012C00067002B683F19033FDB195A78AA73002A7D
:1012D00000D1EA734B4AA118B2680901521800986C
:1012E0000199106051600E9991600F99D16042464A
:1012F0009A705A701A706B7B9946002B00D170E07F
:1013000022004946A8686B6898472A6800285BD085
:101310004B4648465B004B44D719033BB870D11885
:10132000D35C002B00D07B704B460C706B734C452C
:1013300058D0F3681B19013B18787368BFF35F8FAF
:1013400042461A608BF310885346002B08D10002E6
:10135000204305B0F0BCBB46B246A946A046F0BD4E
:10136000039B002B4BD00E9B00200F999847030046
:1013700004000D000B4342D000291ADA009A019BA9
:10138000121BAB410092019380221206934204D3B8
:1013900001231D4C5B4200930194039B9A4681E715
:1013A0007368BFF35F8F1C608BF31088012040428D
:1013B000CFE700F00DF9802224184D411206009469
:1013C00001959542E9D3E3E74B465B004B44033B71
:1013D000D3189C70D119D25D002A00D05A704B46A8
:1013E0000B706C73307D009A019B00F075F982469A
:1013F00000289ED02100306800F092FB99E7002081
:10140000A7E7C046FFFFFF0FFFFFFF7F407D70474C
:10141000F0B5EFF30583CE46474680B505000C00D6
:1014200085B0002B0DD0324A0020536A9C4203D86D
:10143000926A0130AA4232D305B0C0BCB946B04668
:10144000F0BD2C4E029301932B4B02000093300011
:101450000B00FFF717FF031EE5DD20BF7168EFF3F8
:10146000108772B60A68002AFCD0BFF35F8FDAB229
:1014700094463068427B624516D0FF2201681A40CC
:101480008946510088464946904441440339897849
:1014900000290BD13269934210D131610EE0E31A79
:1014A0005A1E9341D8B2C7E7FF221A40F1681B0ABF
:1014B0008A18013A1278DBB29A4214D07368BFF3EB
:1014C0005F8F00221A6087F31088094B00205A6A48
:1014D0009442B1D89B6A0130AB42ADD2A41A631ECC
:1014E0009C41E0B2A8E7614600F01AFBE6E7C0467F
:1014F000004005403C0E00202D0F0010F0B5EFF32A
:101500000582D6464F4646461000C0B51038EFF368
:10151000108872B6214C2368002BFCD0BFF35F8F7C
:101520000123190081401E4D1F006963AA461D4D0D
:1015300029601D4D2E78AC463500C5402F402B420A
:1015400015D053465F6A194B8500EB589F4218D35C
:101550006246174B8E43EB581670BFF35F8F002225
:10156000226088F31088002B06D0984704E0BFF370
:101570005F8F276088F31088E0BCBA46B146A84662
:10158000F0BD0C4B92009C46624413681360BFF39D
:101590005F8F0023236088F31088EDE7280100D0D7
:1015A000004005403C7005405C2002203C1F0020AC
:1015B000D0160020D03F054010B5034B01001800A5
:1015C000024AFFF7EBF810BD57200220EC73001021
:1015D000034B596A0A00986A596A8A42FAD17047DD
:1015E0000040054070B504000D00174A536A190009
:1015F000966A536A8B42FAD13000190024184D4183
:10160000AB4216D813D0104B2A005B6A9D4203D917
:101610000D494B6A9342FCD3934207D10A4A02E038
:10162000516A994202D1916AA142F9D370BDA64292
:10163000E9D9054B5B6A1C005A1CEFD0012201243A
:101640006442E5175242E3E70040054070B50400EC
:101650000D00EFF3108672B61A4A1368002BFCD007
:10166000BFF35F8F002D1BD02000FFF763F91649F1
:1016700081420AD02000FFF765F901212000FFF721
:1016800029F90123A340114A1360114BA400E5502E
:10169000BFF35F8F00220B4B1A6086F3108870BD7A
:1016A0000121A1400A4BA200D5500A4B20001A7814
:1016B0008A4305491A70FFF769FA00212000FFF7F5
:1016C00009F9E5E7280100D0FD1400103860054055
:1016D000D01600205C200220F0B54F46D646464684
:1016E000C0B507002B4C616A0D00A66A616AA94269
:1016F000FAD18B4208D805D00120E0BCBA46B146E9
:10170000A846F0BDB242F7D9EFF3108A72B622486C
:1017100001680029FCD0BFF35F8F0125BD401F4940
:101720001C4C8846097889462943C9B28C464146F3
:1017300060460870391D890065630A511849B80070
:101740004350216A0020294219D0616A0800A66A24
:10175000616A8142FAD18B4219D801D1B24216D8BE
:10176000CC450BD00B4B1F221D625D6301233A4019
:1017700093400C4A136043464A461A700120BFF357
:101780005F8F0022044B1A608AF31088B5E70020AF
:10179000F5E7C04600400540280100D05C2002204B
:1017A0003C1F002080E200E0EFF3108C72B60A4983
:1017B0000B68002BFCD0BFF35F8F01238340074AE7
:1017C0000748136202789A430270BFF35F8F0023C9
:1017D0000B608CF310887047280100D00040054052
:1017E0005C20022070B505000E001400002923D0F3
:1017F000002A12D080686B689847296800280ED0AC
:1018000063001B197200033B9219CB18033A9E70B8
:1018100088188A5C002A11D10470300070BD7300F2
:101820009B196200033B1219CB18033A9C7088186D
:101830008A5C002A05D106702000EFE75A70047018
:10184000EBE75A700670F7E730B583600023CCB23F
:1018500043730133047342608373C4730D000068E3
:10186000012C06D9421C0133DBB2137003329C42B7
:10187000F9D1FF2129404B005B18C0180023033821
:10188000437030BD70B505000C1E07D063000168C1
:101890001B19033BCB185A78002A01D1200070BDD8
:1018A000500080180338091800204E784870210035
:1018B00058702800FFF796FF310004002800FFF75A
:1018C000E1FF0600002C26D00028E7D021003200DE
:1018D000A8686B689847296800280ED073009B1988
:1018E0006200033B1219CB18033A9C7088188A5C7B
:1018F000002A00D05A700670D0E763001B197200EE
:10190000033B9219CB18033A9E7088188A5C002A10
:1019100000D05A7004703400C0E7C046F0B5574696
:101920004546DE464E46E0B50D006F0001687F1962
:10193000033F0400C85D83B00192CA19002850D04B
:1019400043001B18033BCB185E78B446002E1AD117
:10195000019E002E42D0E67B002E04D073009B191E
:10196000CB18033B5D70A37B002B00D1A573E573FF
:1019700000282FD10023537003B0F0BCBB46B24601
:10198000A946A046F0BD72006244033A8A18517815
:1019900088460021517089465970320001002000AC
:1019A000FFF720FF43468246002B07D05B002168EB
:1019B0004344033BCB185A78002A16D1424651467D
:1019C0002000FFF70FFF2168019BCA19002BC2D12D
:1019D0000028CFD043001B18033BCB18002199707F
:1019E000C8E7019B002BB6D1C4E75000801803382C
:1019F0000918487883464846487058704146200088
:101A0000FFF7F0FE594680462000FFF73BFF4146B6
:101A100002002000FFF7E6FE8046CFE7F0B557460C
:101A20004546DE464E46E0B583B00191457B040055
:101A30006F0000687F19033FC15DC219002952D0B1
:101A40004B005B18033BC3185E78B446002E1CD1D4
:101A5000019E002E44D0E67B002E04D073009B191B
:101A6000C318033B5D70A37B002B00D1A573E57306
:101A7000002931D1002328005370617303B0F0BCFA
:101A8000BB46B246A946A046F0BD72006244033A86
:101A9000821850788046002050708146587032007D
:101AA0002000FFF79FFE43468246002B07D05B00D5
:101AB00021684344033BCB185A78002A17D1424689
:101AC00051462000FFF78EFE019B01002068C219DD
:101AD000002BC0D10029CDD04B005B18033BC318AD
:101AE00000209870C6E7019B002BB4D1C2E75000DC
:101AF000801803380918487883464846487058705B
:101B000041462000FFF76EFE594680462000FFF751
:101B1000B9FE414602002000FFF764FE8046CEE792
:101B200070B5050000292CD0437B8B422ED04C0091
:101B300000686418033C0419A278002A21D05300DD
:101B40009B18033BC25CC6188A4202D11BE0002AE4
:101B500008D053009B18033BC3185A788A42F6D129
:101B600062785A70002301222800A3706370FFF787
:101B7000D5FE697B02002800FFF734FE6873012060
:101B800000E0002070BD63783370EBE7012219009C
:101B9000FFF7C4FEF2E7C046F8B5CE46474604005C
:101BA00080B506200E0000F08DFA051E51D0524B74
:101BB0005249E21853425A418023DB039C46920566
:101BC0004F4B62441A604F4B1A6010008B68984369
:101BD000FBD1494B4C4AE31859424B4180215B00F1
:101BE00049000620995200F06DFA3100C00000F063
:101BF00025FCC30932D14022012190466162A362D3
:101C0000256BEB0736D427008026E36A00232C37A8
:101C100076013E4333600620256300F053FA4146C7
:101C2000800000F00BFC236B05009846DB073BD4DB
:101C30006023E26A5A400E33134033604346236305
:101C4000802310229B013B431A60304B2363032304
:101C5000A3642800C0BCB946B046F8BD2C4A9342E4
:101C60003FD900232B492C4A6162A362256B904621
:101C7000EB07C8D52200C02330329B011343234A0F
:101C800006201A60666AA36AB601F61800F01AFA0E
:101C9000224900F0D3FBB6020100300000F0CEFB79
:101CA0000021FFF79FFCAEE72200C02330329B01EA
:101CB0001343164A06201A60636AA26A9B0199467A
:101CC000914400F0FFF94B4614499B02994600F0FD
:101CD000B5FB0100484600F0B1FB0021FFF782FC94
:101CE000A6E77F2299018846024001325208190076
:101CF0009044130082E7C0460080FCBF00C0004053
:101D000000E0004000F000404C1F002001030000F4
:101D1000FEFF0000FFFF0000C0FF3F004E0E00006E
:101D20000539013AF8B5D2004C0105001443002BE7
:101D300006D0013B5A4253419B00234302241C43DB
:101D40002E6BF3070BD46E22EB6A290063401A4016
:101D500080232C315B010B431A602E63F8BD2A00EF
:101D6000C02330329B0113430A4A06201A606F6A6F
:101D7000AB6ABF01FF1800F0A5F9074900F05EFB50
:101D8000BF020100380000F059FB0021FFF72AFCD8
:101D9000D9E7C046010300004E0E0000F8B5056B00
:101DA00004000E01EB070BD41021E36A22007340FC
:101DB000194080232C325B01134319602563F8BD61
:101DC0000200C02330329B0113430A4A1A60476A5B
:101DD000836ABF010620FF1800F074F9064900F07D
:101DE0002DFBBF020100380000F028FB0021FFF7A7
:101DF000F9FBD9E7010300004E0E000010B50C20DE
:101E000082B000F0B5F9FEF7C1FC002810D08B4B72
:101E10008B488B498B4A186059609860D96018616B
:101E200059619861D961186259625A6202B010BD55
:101E3000854CA06700F0F2F90122844B1A60636CB4
:101E4000012BFCD10322824B1A607F4A936B012B3A
:101E5000FCD1013301217F4A7F480093043300F015
:101E600037F905237D4A009301217D4800F030F9C0
:101E70007C4B5A68FF2A02D8802252005A60802286
:101E8000734B6E4C12011A602169002907D06069FA
:101E900000F0D4FA013043001B18033BFDD2E022CE
:101EA000704B714819680A4002600222196851405B
:101EB00001320A40042102609A681142FCD080215C
:101EC0006A4A09011160802252005A60684B2361FE
:101ED000684B5968FF2900D85A60032201215B4BE7
:101EE0001A60644A93681942FCD0E02310680340EA
:101EF00061480360126803234A40022113405D4A8F
:101F0000036093681942FCD080215C4B0901196081
:101F100080215B4B4900516063615A4B5A68FF2A2C
:101F200000D859608022584B12011A60E1690029DB
:101F300007D0606900F082FA013043001B18033BB0
:101F4000FDD2E0234F4A11680B4050490B608021BD
:101F50004F4B090119608021394B49005160E36101
:101F60004C4B5A68FF2A00D8596080224A4B120114
:101F70001A60216A002907D0606900F05FFA013019
:101F800043001B18033BFDD2E023424A11680B407B
:101F900042490B608021424B0901196080235B009C
:101FA00053608022264BD20223623E4B59689142F5
:101FB00000D25A6080223C4B12011A60616A0029EB
:101FC00007D0606900F03AFA013043001B18033B68
:101FD000FDD2E023334A11680B4034490B60802165
:101FE000334B090119608023DB025360154B636298
:101FF000304B5A68FF2A02D8802252005A60802251
:102000002D4B12011A60A169002907D0606900F008
:1020100015FA013043001B18033BFDD2E023254A8B
:1020200011680B4025490B608021254B090119607F
:1020300080235B005360124BA361F7E6000F002082
:10204000006CDC021BB70000008000403CB0004088
:1020500030B00040002F685900800240008C864755
:1020600000C00240308000403090004030A000406E
:10207000001BB7003C8000403C9000403CA000406A
:10208000405973075480004054B0004054900040C1
:1020900054A000406080004060B00040609000406C
:1020A00060A000406C8000406CB000406C9000402C
:1020B0006CA000404880004048B00040489000407C
:1020C00048A00040014B8000C0587047000F00201E
:1020D000F8B5040021481D0017000E0000F0AEF90D
:1020E0000100380000F0AAF9069B29041B031943DC
:1020F0002368002B20DB1A4B1A4DE21853425A4139
:1021000080235B019C461203174B62441A60174BF5
:102110001A601700AB689F43FBD1C022231D9201B8
:102120001A4321232660A06013602368002BFCDA89
:102130000823E1601360F8BD3F2322681340B342D7
:10214000D9D1A3681B051B0D8342D4D1EE22E368CD
:10215000D20213408B42CED1EDE7C046001BB70040
:102160000040FDBF00C0004000E0004000F0004023
:102170008023024A9B000343D362704700800540DE
:1021800010B580241C4BE4051C6000281AD00123E4
:102190001A4C18431A4BDC611A4C44401C625962B9
:1021A00098628021144BC9051960174817490860C7
:1021B000E021C9041960002A07D18022144B1206BD
:1021C0001A6010BD0E4BD861EBE753019B1A9B00C0
:1021D0009A18802312015B049A4209D213000D4918
:1021E0000B60074B5A608022094BD2051A60E8E762
:1021F000094B1A00F3E7C04600B00540D3C007B052
:10220000008005402D3FF84FFCFF010008200140F1
:1022100000A00540641C0020FFFFFF00AA23064A1F
:102220001B0113602F230549D360054B19605368C8
:10223000002BFCDA7047C0460040024000B0FA00B4
:10224000006002402C4B2D4A70B51A602C4A2D4B71
:102250002D491A6014008B689C43FBD12B4D2C4EEA
:10226000B54208D2013E761BB60808CD9847230038
:102270000134B342F9D1FFF7C1FD264A214B1A6060
:10228000214A9368DB43DB01DD09002BF9D14022B1
:10229000214B224C224E9A675A671A67DA66B4427B
:1022A00008D223682000002B20D00C34FEF7FCFD60
:1022B000B442F6D31B4C1C4EC022B168200000F083
:1022C000C7FBB460FEF7DAFAFEF7B0FDFEF7A0FF39
:1022D000164C174EB44208D2013E361BB60808CC45
:1022E00098472B0001359E42F9D170BD0834FEF7A6
:1022F000CDFDB442D5D3DDE700E00040BFCDFBFE0D
:10230000FE7F3C0000F0004000C00040E40E0020D2
:10231000F40E0020FFFFFF0100F00140D40E00206A
:10232000E40E00200000002000ED00E0F40E00208C
:10233000000F002000BEFDE710B5FFF7FBFFC04611
:102340000FB400B5084883B000F032FC049B002BAA
:1023500007D005A91800019100F01EF8034800F00D
:1023600027FC0120FFF7E6FF1074001058730010DF
:1023700010B50148FFF7E4FF2074001010B50148C4
:10238000FFF7DEFF3074001010B5002800D110BD3B
:1023900000F0C2FBFBE7C04610B5094A0300146811
:1023A00084B0002C08D0012200910648524203A9B3
:1023B000A047012004B010BD00F0FAFB0020F9E7AF
:1023C000601C00208923001001480421014B18479C
:1023D000700E0020F9230010142310B50100188896
:1023E00004331B88984710BD162310B501001888C8
:1023F00002331B88984710BDF8B54746CE4680B5D6
:102400000F1E19D014239946043304000025012619
:1024100098464B461888434621681B88984701C454
:10242000431E9841013540420640AF42F1D1300091
:10243000C0BCB946B046F8BD0126F8E7114A936F13
:102440009B0813D210665166002905D0FFE7FFE70D
:10245000FFE7516F106F704704B5002801D00020CE
:10246000C04304F0BDFE002104BDC046F0B5146EAB
:10247000556E576F166FFFF7E5FF14665566576781
:102480001667F0BD000000D094464A4A926F920849
:10249000624601D228E0C046F0B5464E346E756EF5
:1024A000776F366F00F020F89446424A14665566FE
:1024B000576716676246F0BD94463E4A926F92088F
:1024C000624601D254E0C046F0B53A4E346E756EA5
:1024D000776F366F00F04CF89446364A14665566AE
:1024E000576716676246F0BD002B24DB11D0002928
:1024F0003EDA00B5C943404200D1013100F038F85E
:10250000C943404200D10131DB43524200D1013383
:1025100000BD002AEBD1002801D1002905D0002000
:10252000C90FC90701D1C043410800B504F050FEEE
:102530000022002300BD00B500290ADBDB43524224
:1025400000D1013300F014F8C943404200D10131F9
:1025500000BDC943404200D10131DB43524200D1AA
:10256000013300F005F8DB43524200D1013300BDD6
:10257000002923D1002B18D1002A0CD0BC460D4FC6
:1025800038667A6600210023FFE7FFE7FFE77A6FEE
:10259000386F67467047002801D00748010000B532
:1025A00004F016FE0022002300BD02000B000020F4
:1025B00000217047000000D0FFFFFFFF002B00D07C
:1025C000BFE0130C28D1002AE7D080B4114F396640
:1025D0007A66FFE7FFE730B4040C7B6F396F1B04AA
:1025E00023433B667A66FFE7FFE7FFE7C04684B216
:1025F0007B6F3D6F1B0423433B667A66FFE7FFE773
:10260000C04600232C042D0C7A6F386F00196941E5
:10261000B0BC7047000000D0F0B594460025140E01
:1026200001D112020835140F01D112010435940FA3
:1026300001D192000235D40F01D152000135D40BE3
:102640000134254F7C66254C3C660E0C93B2FFE7A7
:10265000FFE7FFE73C6F6643360C7703BE467343E4
:10266000DF0B5B04C01AB941130C7343DB18C91AA2
:10267000CE086643360CB64493B273431F0F1B015A
:10268000C01AB941130C73431F0B1B05C01AB94183
:10269000860D8F023E436643360C092D24DB520A19
:1026A0007243801A7703460A6643360C16235B1B77
:1026B000DE40DF40BF1964466643821B7046043526
:1026C00006330100D940A840C01900D30131A2420D
:1026D00006D20023F0BD0000000000D0FFFFFFFF86
:1026E000121B0130F3D3F1E709277F1BFE4064463C
:1026F000A2B27243801A00D20139220C7243130C29
:102700001204821A99410B007046043513370100F8
:10271000F940A840801900D30131002B02D1A24218
:102720000AD2F0BD013000D30131121BFAD2013BB5
:10273000F8D1A24200D2F0BD013000D30131121B0A
:10274000F7E7F0B51C0C00D080E00CB400251C0AA3
:1027500004D11B02160E3343120208351C0B04D1A0
:102760001B01160F3343120104359C0B04D19B004F
:10277000960F334392000235DC0B02D192185B4175
:1027800001351C00971864410134464F7C66464C65
:102790003C660E0CFFE7FFE7FFE7C0463C6F664371
:1027A000360C7703BE4697B27743C01B00D201397F
:1027B000C01B00D201399FB27743C91BC91B170C3C
:1027C00077437E04FF0B801BB941CE086643360C6D
:1027D0000C2D33DBB644120B1F053A431B0B97B28B
:1027E0007743C01B00D201399FB27743C91B170C36
:1027F00077433E043F0C801BB941860D8F023E4358
:10280000664329277F1BFE400C3D7746AF40BF192A
:1028100030BCA2B2ABB272437343801A9941220C0E
:102820007243130C1204801A994102000B00013705
:10283000001BA941F9D2781E0021F0BD0C277F1B97
:10284000FE4077467F0BAF40FF19E0E700245D1C98
:1028500007D0144F7D663966FFE7FFE7FFE7FFE724
:102860003C6F95B29EB265436643401BB141150C67
:102870001E0C6543664336042F0C3E432D04401B5B
:10288000B141994204D202000B0020000021F0BDAA
:1028900001D19042F7D3801A994101349942F2D381
:1028A000F6E70000000000D0FFFFFFFF132370B524
:1028B0001D78012D15D010DD1D48FFF795FD1D4C2D
:1028C00001008022200000F0C3F8022D2DD01A480C
:1028D000FFF782FD194B186070BD194B154CA364AE
:1028E000F5E7174B134C23606360A360E36023613B
:1028F0006361A361E36123626362A362E3622363B2
:102900006363A363E36323646364A364E364236591
:102910006365A365E36523666366A366E366236771
:102920006367A367E367A364D1E7054BA364CEE7BE
:1029300053440000301000204C3300002C1F0020B6
:102940004529001007B5604601880A0A0230DF2ACF
:10295000FAD1C9B2820804D3028840880004104327
:1029600000E00068014A5050039007BD301000207D
:1029700051434343C9188C46110C83B24B4310B4E6
:10298000040C614392B280B2504362431C041B0C9E
:10299000001910BC59411304120CC0185141614474
:1029A00070470000132310B512481C78FFF71CFD78
:1029B0000100012C0AD003DD80220F4800F048F806
:1029C0000E48FFF709FD0E4B186010BD0A4C54224B
:1029D000200000F03DF80B4B6365A365E3652366BB
:1029E0006366A366E36623676367A367E36723629F
:1029F000E361E5E753460000301100204C3300004E
:102A00002C1F0020092A001007B5604601880A0A19
:102A10000230DF2AFAD1C9B2820804D30288408882
:102A20000004104300E00068014A5050039007BDC5
:102A30003011002001480421014B1847800E00206E
:102A4000F9230010014B1B6818470000800E00207E
:102A5000014B5B6818470000800E0020F0B5464629
:102A60004F46D646C0B5437D80460E001700002B6A
:102A70004BD0002A32DD274B01259A464B1E0024FD
:102A80000020994607E0335D0A2B2CD02B0001343F
:102A90000135BB4213DA002CF5D133780A2BF5D17E
:102AA00043461B7D002BF1D14346504602211B6853
:102AB000984728002B0001340135BB42EBDB8742ED
:102AC00004DD4346391A1B6830189847F619013E51
:102AD00033780D3B5A42534142461375E0BCBA4627
:102AE000B146A846F0BD4B461B5D0D2BCED0A04293
:102AF000DADA4346211A1B68301898474346504695
:102B000002211B6898472800D4E7036811003000B1
:102B10009847E3E7A4740010F0B5CE46474680B569
:102B200083B06B460600DD1D2870FEF751FD0023C3
:102B30001A4A12184B41802109068B4202D3012206
:102B4000174B524217490800884604F069FB164BA0
:102B500081461C68002C14D0144F02E02469002C1C
:102B60000FD02368002BF9D03B68002B01D0A34283
:102B7000F4D1200001222900FFF770FF2469002C06
:102B8000EFD14B46002B05D1300003B0C0BCB94695
:102B9000B046F0BD404604F013FBF5E740420F009D
:102BA000FFFFFF7FDC0E0020541800205C1800207F
:102BB000F0B5DE4657464E464546E0B585B00700BF
:102BC00004F08CFA0600FEF703FD00232B4A1218CE
:102BD0004B41802109068B4202D30122284B5242ED
:102BE000284908008B4604F01BFB274B01901C680A
:102BF0009A46002C3BD0254B984602ABDD1D0A239C
:102C0000994602E02469002C17D02368002BF9D0E4
:102C100043461B68002B01D0A342F3D120003200B1
:102C20003900FFF71BFF4B462000012229002B70C3
:102C3000FFF714FF2469002CE7D1019B002B18D16A
:102C400053461C68002C06D06368002B0BD09847B5
:102C50002469002CF8D1300005B0F0BCBB46B24668
:102C6000A946A046F0BD2469002CEDD1F3E7002869
:102C7000F1D0584604F0A4FAE2E7C04640420F0003
:102C8000FFFFFF7FDC0E0020541800205C1800209E
:102C90000A4A1368002B05D10CE01A001B69103298
:102CA000002B07D09842F8D1002902D103691360A4
:102CB000016170470029FCD01060FAE75418002029
:102CC00010B500F0D9F910BD7047C0460022014B85
:102CD0001A707047592002204B790020FF2B0BD12E
:102CE0008B79002B08D1CB79012B05D1082A03D988
:102CF000024B8A7809301A707047C046592002206A
:102D00000120704770B5012901D0012070BD134921
:102D10005379107909781B02034300209942F5D1B9
:102D20005378012B08D0022BF0D10020642200211F
:102D3000FFF726FA0120E9E79478D278050012021D
:102D40001443D20502D5620A93401D000448FFF7E0
:102D500043FB7F210300214028009847592002208F
:102D6000554200000123037000487047A87400100A
:102D70004B780A781B0213438A7810B512041A4361
:102D8000CB781B0613439622D200934200D010BD8D
:102D90000348FFF721FB0021030008009847C046C5
:102DA00055420000024B1860024B19607047C04644
:102DB000E0170020E417002010B5024B1878FDF74B
:102DC0009BFD10BD5A200220114B70B51A68002AD5
:102DD0001AD0EFF3108172B610680028FCD0BFF350
:102DE0005F8F00200B4A596010701B68BFF35F8F24
:102DF000186081F3108800240025074B1878FDF730
:102E00007BFD2900200070BDFA240025A400F4E712
:102E10006C1C00205B2002205A20022070B50400A8
:102E200000200E0001F016FB002836D0002001F033
:102E300029FB002831D0FEF7CBFB0023184A1218DB
:102E40004B41802109068B4216D2164D280004F012
:102E5000E7F9002821D0002001F0FCFA00280FD16A
:102E600001200021404200F0C3FC032464422800FA
:102E700004F0A6F9200070BD01220B4B5242E4E79A
:102E8000002001F0FFFA0028EAD0210032000020E3
:102E900001F004FB041EEAD1E7E703246442E9E7FA
:102EA00040420F00341F0020FFFFFF7FF8B5DE46D1
:102EB000574680B505000C00FEF78AFB0023374A11
:102EC00012184B41802109068B4202D30122344B58
:102ED0005242344908008A4604F0A2F9002803D17E
:102EE000C0BCBB46B246F8BD002001F0B3FA0028D2
:102EF0004AD00026002C43DD2B4B9B4614E0A91939
:102F0000002001F03FFB070001200021404200F0BB
:102F10006FFC002001F0FAFAFEF75AFB224BF6197B
:102F200018605960B4422BDD002001F045FBA71B5F
:102F30000200B84200DD3A00002AE0D10120002161
:102F4000404200F055FC002001F0E0FA002001F0C2
:102F500081FA002814D0002001F02EFB0028E1D1D6
:102F6000FEF736FB5B460F001A685B68002184465B
:102F70000E4812184B419F4202D8D3D19445D1D963
:102F8000504604F01DF9ABE700200021064B186005
:102F90005960504604F014F9A2E7C04640420F00C1
:102FA000FFFFFF7F341F00202810002020A1070012
:102FB00010B5244C84B00021200004F019F9002839
:102FC0001CD1214B1A68002A16D0EFF3108172B67B
:102FD00010680028FCD0BFF35F8F01241B485960A4
:102FE00002781B68D2B20470BFF35F8F00201860B4
:102FF00081F31088002A0AD004B010BD01200021FE
:10300000404200F0F5FB200004F0DAF8F4E7FEF7A8
:1030100035F90400FEF7DCFAFA22002392001218B8
:103020004B41802109068B4202D30122084B5242B8
:103030000121029100210191064920000091FEF733
:1030400021F9D9E7341F00206C1C00205B200220EE
:10305000FFFFFF7FC92D0010054B10B51868002831
:1030600004D0044B0022196801F064F810BDC0467A
:10307000E0170020E4170020D02310B51B0684B011
:103080001C68FEF7FBF8FEF7C1F9A04202D0002051
:1030900004B010BD274B1B7801F070FC2648FDF7EB
:1030A000F5FE0120FDF7D4FEFF23244C24492070B7
:1030B0001840FDF747FC20780121FDF70BFC0520A7
:1030C000FDF722FC002827D1FEF7D8F80400FEF710
:1030D0007FFAFA220023920012184B418021090640
:1030E0008B4202D30122174B52420121029100214F
:1030F0000191154920000091FEF7C4F80822040050
:1031000000211248FFF79EFC002CC0DB1048012173
:10311000FFF7BEFD0120BBE700220E490520FDF7A9
:103120003BFCFDF7B9FB094B01001800FDF7DAFE87
:10313000ECE7C046EC760010341F00205A20022035
:10314000B12F0010FFFFFF7FC92D00106C1C002065
:10315000900E0020B92D00100048704778750010BF
:10316000004870472475001010B504001748037814
:10317000002B20D0002C06D1154B16484380063B6F
:10318000FF3B038010BD052C19D8134BA400E05859
:103190001249002304E001330A800231132B10D0BE
:1031A000C25C002AF7D1C0220133DBB25B0092007F
:1031B00008481343E5E7112100F01AF8DAE7002088
:1031C000E0E7CA2303489B00DBE7C046541F022008
:1031D000090400002C1800200C7500102E18002087
:1031E00010B5024800F0D8F810BDC046241F0020DA
:1031F00030B54B1E012900D1A7E0664A11780D11A8
:103200002C0030349F2900D9A2E00470012B00D19A
:10321000BEE00F21147821400C003034092900D978
:1032200098E04470022B00D1B2E0547825112900B7
:1032300030319F2C00D990E08170032B00D1A7E0A2
:103240000F2121400C003034092900D987E0C470D7
:10325000042B00D19CE094782511290030319F2C5B
:1032600000D97FE00171052B00D191E00F212140B1
:103270000C003034092900D976E04471062B00D1C6
:1032800086E0D4782511290030319F2C00D96EE0DA
:103290008171072B00D17BE00F2121400C003034DD
:1032A000092966D8C471082B00D171E01479251161
:1032B000290030319F2C5FD80172092B68D00F2173
:1032C00021400C003034092958D844720A2B5FD0B1
:1032D00054792511290030319F2C52D881720B2B43
:1032E00056D00F2121400C00303409294BD8C4722C
:1032F0000C2B4DD094792511290030319F2C00D909
:10330000073101730D2B43D00F2121400C003034C5
:10331000092901D937310C0044730E2B38D0D179EB
:103320000C11220030329F2900D9073282730F2BF3
:103330002ED00F220A4011003731092A01D830322D
:103340001100C173102B23D010300023037030BD47
:1033500007345AE737310C0063E707316CE7373140
:103360000C0074E707317DE737310C0085E7073142
:103370008EE737310C0095E707319DE737310C00B8
:10338000A3E70731AAE737310C00C4720C2BB1D187
:10339000C018DAE7241F002030B5002589B00400EA
:1033A0000922002101A80095FFF74CFB092200210A
:1033B00005A80495FFF746FB4B236A466846137041
:1033C00004A90D2203F0F4FE15210822200069440F
:1033D000FFF73EFB09B030BD10B501210520FDF718
:1033E00079FA10BD10B500220021024800F05AF908
:1033F00010BDC046801800208022024B5202DA64C1
:103400007047C04600201150F0B5C64600B5060012
:1034100000F022F90C231B4DFF22AB6705201A494F
:10342000FDF7BAFA40239846184C402200212000AC
:10343000FFF708FB43460127238321210023144A79
:103440006770A260136063545F31618441462187D5
:10345000053963540F4A10496360E260A1620B6052
:103460006362E26203F0CCFE80239B052F64EB6471
:1034700090230A4A3000EA50FFF7BEFF80BCB846EE
:10348000F0BDC046000011508104002060180020EB
:1034900084001050000110508000105010D0010026
:1034A0000B785B0602D14B78052B00D070478A78E9
:1034B000014B1A60FAE7C04600001150F0B5C6464D
:1034C00000B5CC7888780A794B797F21A407014030
:1034D0001B02C50913434F00A20F1400324E7A1984
:1034E0005201B218907001206840507000205B05B6
:1034F0005B0DD0701383D4768046CA00012D33D083
:103500002A488446880162448446B4446046826006
:1035100040461060002933D0254AC90090466246D3
:10352000414451603F223F339343022C00D15B0062
:1035300020487A1901685201B218D1601E4ACB188E
:10354000036051405A40802388465B019A4228D844
:103550004346A4061C4380237F197F01F619726835
:103560001B062343136011E014488446880162441B
:103570008446B4446046826240461060002909D106
:1035800000236D0175196B600D4BEB60012080BC51
:10359000B846F0BD084AC9009046624641445162AF
:1035A000C0E7FEF7EBFED3E7601800208400105060
:1035B00004001050681C00200000105080001050C3
:1035C0000001105010B503F01BFE10BD10B57F2098
:1035D0000C0020404000E409110000191A00034BC0
:1035E0004001C01800F05EF8012010BD60180020F6
:1035F0007F23180010B508400B420BD0C909802268
:103600004000074B401840010021C018120103F090
:1036100027FE10BD0223034AC9095B1A9366EEE731
:1036200060180020002011507F22130010B50B40BD
:103630000A4200D110BDC9095B005B1804485B0158
:10364000C018002300220349C37003F009FEF1E70C
:1036500060180020FFF7FFFF80220D4B520410B5C9
:103660001A600C4B0C491A6010008B689843FBD110
:103670000A4C9C2200212000FFF7E4F9802200215F
:1036800052010748FFF7DEF90923636710BDC04602
:1036900000E0004000F0004000C000400000115079
:1036A00000001050002310B5C3820133828283765C
:1036B0000161040003F0C4FD002804D080219023A0
:1036C000074A8902D150200003F0C2FD002802D031
:1036D0000123237710BD200003F0AAFDFAE7C046BE
:1036E00000201150024B5878431E9841C0B27047D9
:1036F000B4150020024B18784007C00F7047C04631
:10370000B4150020034B1878FF38431E9841C0B20F
:103710007047C046CC0E0020F0B5C64600B52A4E14
:1037200005003378FF2B01D001203FE05322002118
:103730002648FFF787F9264C2000FDF7A7FB254B0D
:103740001C60254C2000143CFDF7BEFB200001F05E
:10375000E3FB224B224F1C60224B9846002B1DD0CE
:103760003800FFF7FFFA204B18603B7842460024F0
:10377000002A15D01D4A904642469C4219D39047D4
:1037800001343B78E4B2A342F6D228003570FFF74B
:103790003BFE2800FFF720FE012007E03B78E5E72D
:1037A00000F016FF3B78002BEFD0002080BCB8461D
:1037B000F0BD0D4A630012681B19DB00D318002B03
:1037C000F3D01A68DBE7C046CC0E0020B415002009
:1037D0006C15002008160020C40E00200C160020D6
:1037E00054200220652D00108C120020D1450010BD
:1037F000F0B5DE4657464E464546E0B591B001F07D
:10380000C3F8002800D115E1CA4BCB4E0193CB4B36
:103810000DAC0293CA4B9B4635686A69EFF3108181
:1038200072B61368002BFCD0BFF35F8FA96128002C
:10383000210001F0B3F96A69AB69BFF35F8F002122
:10384000116083F31088002800D1F3E06378082B1F
:10385000E2D8019A9B00D3589F466368002BDBD0C7
:10386000A0689847D8E77F222179B44D0A405300D9
:10387000C809EB181B18180001273030C578BD4364
:10388000C570C5780337BD43C570002A00D1EEE08E
:10389000AC4ADB7C002A06D0AB4A1278934200D2B5
:1038A00064E19B1ADBB2002B00D0C3E0A74DA368F4
:1038B00062792078A847AFE70122A04D01212B783B
:1038C000042013432B703323EA5C8A43EA54EA5CF6
:1038D0008243EA540133EA5C8A43EA54EA5C824355
:1038E000EA54237800209A4600F026FD60222379CE
:1038F0001A40602A0DD0402A00D1BEE0DB06DB0E64
:10390000012B00D13DE1022B00D1D3E0002B00D1EF
:10391000C2E020780021FFF76BFE80212078FFF7BE
:1039200067FE79E7029B1B78DB0700D474E7884BBE
:10393000002B00D170E700E000BF6DE77F4D2B78D2
:10394000DB0700D468E7834B002B00D164E72878BD
:103950000007C00F00E000BF5EE723787A4F794A86
:10396000984600253B78002A49D0B1463E005F4684
:103970003A009D4265D34046904701353378EDB219
:10398000AB42F5D24E46BB466C4D53220021280077
:10399000FFF758F81022FF21E81CFFF753F8280022
:1039A0002022FF211330FFF74DF82EE02378664FD9
:1039B000644A984600253B78002A2FD0B1463E0045
:1039C0005F463A00AB4247D84046904701353378CE
:1039D000EDB2AB42F5D24E46BB46584D53220021C4
:1039E0002800FFF72FF81022FF21E81CFFF72AF824
:1039F00028002022FF211330FFF724F815E040466D
:103A000000F024FE3B78002BBED000F08BFC524B24
:103A1000002B00D100E700E000BFFDE6404600F0CB
:103A200015FE3B78002BD8D0444D00F07BFC237969
:103A3000AB70F1E611B0F0BCBB46B246A946A04659
:103A4000F0BD464A6B0012685B19DB00D318002BEF
:103A500000D1AEE15A688EE7404A6B0012685B19EC
:103A6000DB00D318002B00D1A6E15A68ACE7A368AD
:103A70006279207800F074FCCEE63948002800D145
:103A800047E700F059FC012150460EAA00E000BFB4
:103A9000002800D0C0E63CE7202A00D1A6E0002A9A
:103AA00000D036E76379092B00D932E72D4A9B0015
:103AB000D3589F467023217A0B4200D029E70F3359
:103AC0000B405B00CF09E818C019C07C0393844603
:103AD0001C48002808D01C480078844500D2A8E083
:103AE0006346181AC3B29C466046002800D09AE08C
:103AF000002A00D059E11C4B984663791A00994678
:103B000002239A43012A00D159E14B46002B00D0F1
:103B1000FFE6039B0CAAEB18DB193033DB7802328B
:103B20009B07DB0F1380504602230EA900F0A4FB75
:103B300072E6C046F47500100C160020B415002083
:103B40004D460010652D0010542002204148001001
:103B50000000000000000000000000008C120020A7
:103B6000000000001876001080760010C04A58004F
:103B70001268C318DB00D318002B00D15AE71D6967
:103B800095E6237A0F2B00D9C3E6BA4AEB18DB7807
:103B9000002A05D0B84A1278934265D39B1ADBB24B
:103BA000002B00D0B5E6B548B54D00F0C5FB0121AE
:103BB0005046EB680EAA9847002800D02CE66022F9
:103BC000150023791D401A4200D0A2E663790A3B12
:103BD000012B00D99DE600F0AFFB63790A2B00D1E1
:103BE0002FE150460EA900F031FB15E6237A0F2B8A
:103BF00000D98EE69F4AEB18DB78002A06D09E4A51
:103C00001278934200D2FDE09B1ADBB2002B00D069
:103C10007FE69A489A4D00F08FFB01215046EB68F1
:103C20000EAA984734E7002A00D072E6002398468F
:103C300063E763465B009846C4446346DB009C46EA
:103C40008B48006860448046002A00D155E7002870
:103C500000D15EE6C06800F06FFB4346012150468C
:103C6000DB680EAA984713E7814A59001568CB18FC
:103C7000DB00ED18002D00D14BE6E86895E7E388FE
:103C8000012B00D045E608222B78504693430EA91D
:103C90002B7000F0DBFABFE5022029780CAB9A1CF0
:103CA0008B068908DB0F01400B433BE7A37999465C
:103CB0006B78994507D06B78002B00D04AE14B46D2
:103CC000002B00D0E8E04B4650460EA96B7000F088
:103CD000BDFAA1E56B780CAA02321370504601239D
:103CE0000EA900F0C9FA97E5E3881A0AD8B20F2A9C
:103CF00000D90EE663499300CB589F460EA800F00A
:103D000021FB5046A179FFF76DFB02222B7813436C
:103D10002B7081E5E388012B00D0FAE508222B788F
:103D2000504613430EA92B7000F090FA74E5564BE1
:103D3000002B00D1EDE500E000BF021E00D1E8E558
:103D4000D37891781B020B4350460EA900F094FAE9
:103D50009EE64E4B002B00D1DBE500E000BF021ECB
:103D600000D1D6E5504613780EA900F085FA8FE60B
:103D70002189FFF7F9F9021EF4D1CAE5022A00D120
:103D80005FE1434B002B00D1C3E500E000BF020020
:103D9000002A00D1BDE5D3E7FFF7DEF912230200C8
:103DA0000EA9504600F068FA72E6354B3348984643
:103DB00051E74E46BB4628E64E46BB4634E6E2880F
:103DC000002A09D14B46012B27D0039BEB18DF19A2
:103DD0003037FB789B073DD54346002B00D11BE5D0
:103DE000D86800F0A9FA43460121DB680EAA5046C4
:103DF0009847002000F0A0FA3423EB5CDB0700D5E5
:103E00000AE5EEE61A4A59001568CB18DB00ED18F2
:103E1000002D00D17DE5E868FDE6039BEB18DF1976
:103E20003037FB789B07D7D51A4B1878FFF7FCFB88
:103E30000222FB7893434A46FB70FB789343FB7066
:103E4000CAE70CAB9A1C504601230EA9157000F06E
:103E500013FAE1E40F4B1878FFF7CAFB0222FB7854
:103E600013430122FB70FB781343FB70B4E7C04699
:103E70008C120020652D0010542002205D47001098
:103E80008076001040760010000000000000000066
:103E900000000000CC0E0020581EC0B2FFF760F9F1
:103EA000002800D135E543780793022B00D030E598
:103EB0000121C37907009A115B110A400B4052019E
:103EC0001B0113432A782F318A4313432B70C37885
:103ED00082781B021343C3180693664BA8460593CA
:103EE000654B09370A934B46B1460B93069BBB4281
:103EF00000D8AAE001227B7803920B2B03D1FB7838
:103F000003933B78FF187B78042B21D10025069B77
:103F1000DB1B9BB20493059B1A780A9BAB424DD0E6
:103F2000564B0893564B0993089B099EAA427FD88B
:103F300039005046049A98478446082802D9049AC2
:103F4000824247D2059B01351A78EDB2AA42EBD2E4
:103F50004E46DEE45046FFF735FBAB78454F464A08
:103F6000039300213B78002A1FD0464A04922A007E
:103F70000D009046049A9D4250D35046904701351B
:103F80003B78EDB2AB42F5D24546532200212800E2
:103F9000FEF758FD1022FF213B48FEF753FD20227B
:103FA000FF213A48FEF74EFD05E0504600F04EFB7B
:103FB0003B78002BE9D0039BAB7080E6049E390070
:103FC0003200504600F058FB84460828C0D986428B
:103FD000BED32B4E039B012B44D00022404609E068
:103FE000BB78D318DBB2C318D978FF29B0D101321E
:103FF000DD70D2B2039B9A42F2D166462B003900A3
:1040000080463200214800F045FDB446059B6744D8
:104010001B78AB4200D369E74E467AE41C4A6B003A
:1040200012685B19DB00D318002B19D05A68A4E77B
:104030001823174A6B431668F618002E88D0B36809
:1040400076E7FFF78DF80200A2E60B9B4E469946F5
:10405000104B4546002B00D135E600E000BF32E6AC
:104060004546A8E7054BB2689A42B6D1079B039331
:10407000B3E7C04654200220652D00107946001099
:10408000807600104D460010B7150020C71500209F
:104090008C12002000000000F8B557464E46DE4660
:1040A00045460C00E0B516001F00002A3CD01F4B0F
:1040B00000259A46702399461D4B9B4617E05B46A8
:1040C0002000997800F0A8FC00281FD0210040466D
:1040D000FFF7F4F9002819D0A378DA09012A1CD0D7
:1040E0000A9A013513702378E418B5421CDA637814
:1040F000052B0BD1E3789B079B0FBB4206D15346A0
:104100004A461B789846A3781A42D8D00020F0BCC3
:10411000BB46B246A946A046F8BD0B9A01351370BE
:104120002378E418B542E2DB0120F0E7CC0E002052
:10413000B4150020802310B51B0184B001930E4BF1
:1041400002901C6803916269EFF3108372B61168E4
:104150000029FCD0BFF35F8FA361200001A900F00C
:10416000DFFD6269A369BFF35F8F0021116083F3F4
:10417000108804B010BDC0460C160020702270B527
:10418000094B0C001D788B781A4201D0002070BDBD
:10419000064B2000997800F03FFC0028F6D0210063
:1041A0002800FFF78BF9F2E7CC0E0020B4150020B1
:1041B0000B007F2010B51840DB0933334000044A60
:1041C000C018044B1168C01800F0E2FB10BDC046D7
:1041D00008160020B41500200B007F2010B51840F1
:1041E000DB0933334000044AC018044B1168C0187F
:1041F00000F0F6FB10BDC04608160020B4150020E4
:1042000070B57F240F480C4064000419CD0964196F
:104210003034E078C00701D5002070BD0126E57874
:10422000094835430078E570FFF7D0F90028F4D14C
:104230000122E3789343E370E37803329343E3701E
:10424000EAE7C046B4150020CC0E002070B5094C3A
:104250000600082220000D00FEF7FAFB0023802153
:10426000E360A3602B783000994300220023FFF71E
:10427000C7FF70BD58150020F8B5CE46474690469A
:10428000264E80B58146082230000D001F00FEF743
:10429000DFFB4346B3600023F381EC79AB79240262
:1042A0001C43231CBC4200D93B1C9FB2B381002C91
:1042B0000ED0002F18D04346002B2CD03B1C402F93
:1042C0001BD89FB233787F2B1CD80021144A0FE0F3
:1042D00080212B780022994348460023FFF790FF66
:1042E000C0BCB946B046F8BD7F230022317899435F
:1042F0003B004846FFF784FFF2E740239FB2337844
:104300007F2BE2D9064C3A0041462000FEF7A0FB85
:1043100080212200ECE70020E2E7C046581500208B
:104320007415002010B5142200210248FEF78AFB04
:1043300010BDC04658150020014B18617047C0469B
:104340005815002010B5054C010008222000FEF78A
:104350007FFB0023A360E36010BDC046581500201A
:1043600070B5394C1D0023780600DA09C9098A4264
:1043700013D00020002D00D070BD344B002B03D093
:1043800021003000FFF78CF82369002B03D02200B6
:104390000321300098470120EEE77F2B06D8A06864
:1043A000002834D02A002A49FEF752FBE289A1688E
:1043B0005219E38892B24919E281A160934214D064
:1043C0003F2D12D9A389981A051C80B240282AD8FB
:1043D0002078ADB27F2828D800219A4232D01C4ADA
:1043E0002B003000FFF70CFFC6E72369002B05D038
:1043F000220002213000984700280AD0802123782B
:104400000022994330000023FFF7FAFEB4E70020B2
:10441000B2E700213000FFF7EBF830008021FFF712
:10442000E7F80120A8E74025D2E79A4207D0084CD8
:104430002A002000FEF70CFB80212200D0E780211B
:104440000022CDE70022CBE758150020A134001050
:104450007415002010B50400FFF744F9002801D1BD
:10446000002010BDFFF746F90028F9D1B2229200D2
:104470006243034B01309B181B791840F1E7C0469B
:1044800090120020B2239B00434310B50248181835
:1044900000F050FB10BDC046A0120020F0B5B225C0
:1044A000AD0045432C00C646174F1034E41900B543
:1044B000200092B200F0C0FB0600200000F058FB84
:1044C0003F2803D8300080BCB846F0BD7B190020DF
:1044D000D9789846FFF76CFE0028F3D0200000F052
:1044E00047FB3F280AD992239B00EA184346D2197A
:1044F000D97800204023FFF783FEE3E743460020FE
:10450000D978FFF769FEDDE790120020F8B50400C6
:10451000FFF7E8F8002801D10020F8BDFFF7EAF81E
:104520000028F9D1B2239B005C432500144E2435AA
:10453000AD19280000F0FEFA0028EDD03719002050
:10454000B978FFF735FE0028E6D0A2239B009C46F1
:104550006444A41921002800402200F06DFBB978C2
:10456000051E08D0030022000020FFF749FE0028A6
:10457000D2D02800D1E70020FFF72EFECCE7C046BE
:104580009012002070B5B224A4004443094B0500EA
:10459000E418200092B200F007FC0600200000F0B2
:1045A000C9FA3F2801D8300070BD2800FFF7AEFFE0
:1045B000F9E7C046B4120020B2239B00434310B574
:1045C0000248181800F0D4FA10BDC046B4120020FA
:1045D000B222F0B51B4C83B0002120009200FEF700
:1045E00031FAFF236371184B80260025E3800127F1
:1045F0000823210020007600237332002781383100
:104600000095073B103000F05FFA2100200039319F
:104610003200FF3101230097243000F055FA8E2339
:104620009B00E6183000FCF731FC90239B002662CB
:10463000E6183000E561FCF729FC2663656303B0EA
:10464000F0BDC0469012002000C2FFFF10B5094C1B
:10465000052200212000FEF7F5F920002434103057
:1046600000F05AFC200000F057FC0121200000F06F
:1046700073FC10BD90120020F0B54B79060083B09A
:10468000022B02D18B79022B03D00025280003B026
:10469000F0BD2F4FBB78002BF7D18B7809253B70ED
:1046A0000C780C196378242B0BD1082A02D81FE050
:1046B000AA421DD32378E4185D196378ADB2242B88
:1046C000F6D0052B31D0042B12D163790A2B0FD1F0
:1046D000204B2778019301330093022202233000FC
:1046E000E119FFF7D9FC0028CFD00E35ED19ADB296
:1046F000194C200000F03CFA3F28C7D92600103E94
:104700000020F178FFF754FD0028BFD0200000F012
:104710002FFA3F2817D98E239B00E218F93BF17836
:10472000FF3B0020FFF76CFDB0E721003000FFF7F2
:1047300025FD0028A9D0A3787B7023785D19E418A3
:104740006378ADB2BFE7F1780020FFF745FD9DE744
:104750009012002092120020A0120020F8B56023D1
:1047600014001278050013400020202B12D12F4A8C
:104770006379277916781B023B439E420AD16378FE
:10478000222B27D007D8202B17D0212B02D101298B
:104790003DD00120F8BD232BFCD101293FD00329B6
:1047A000F7D1234B002BF4D0E178A3780902002045
:1047B000194300E000BF0120ECE7012927D00329BD
:1047C000E7D11C4B002BE4D00020911DFEF7D0FA5E
:1047D0000120DFE7012922D00329DAD101252E00AB
:1047E000A378E478023924021C4314712640243251
:1047F0001000714000F0B0FB0F4B002BC9D06208D5
:10480000002031002A4000E000BF0120C2E707235A
:1048100021002800094AFFF72FFD0120BAE72100F7
:104820002800FFF713FD0120B4E7C04690120020D6
:1048300000000000712D0010000000009612002002
:10484000F8B545465746DE464E46E0B5464D1F0094
:10485000EA7880460C00AB788A4246D000208B4232
:104860001AD0F0BCBB46B246A946A046F8BD3F4BA5
:10487000002B04D0484600F073F900286CD048465D
:1048800000F076F93F2807D94E46103E0020F17817
:10489000FFF78EFC002851D1AB78A34201D0012054
:1048A000DFE7334B002B02D0002000E000BF0020E8
:1048B000FFF72CFE0028F2D12E4C200000F03AF930
:1048C0000028ECD1002FEAD0BF06E8D1243C4046B6
:1048D000A178FFF76DFC0028E1D0002300224046BC
:1048E000A178FFF78DFC0120BBE792239B00EE1817
:1048F00010239B46AB4431005846BAB200F054FA3C
:104900001D4BD946002BB2D06B79FF2BAFD0002FB7
:10491000ADD0F219924603E00136B245A7D06B79CB
:1049200032789A42F8D1484600F01AF90028F3D1BB
:104930004B46103B597900E000BFEDE7484600F0D8
:1049400017F93F280BD98E2292004023F1784A4470
:104950000020FFF755FC9FE7FEF77EFB8FE7F1781D
:104960000020FFF739FC97E7901200205930001023
:1049700000000000B41200200000000010B500206C
:10498000FEF7CAFE10BDC04610B5FEF7BBFE10BD57
:10499000037870B5DB0704000E00DD0F002B17D184
:1049A00003785B0701D5280070BD01213000494222
:1049B00002F02EFC2378DB07DD0F002B0AD12378D1
:1049C0005B0708D40422237801251343237002E0F7
:1049D0000025E8E70025300002F0F2FBE3E7C046DF
:1049E00070B50C00012106004942200002F010FCC5
:1049F00033785B07DD0F002B04DB200002F0E0FBC7
:104A0000280070BD3378DB0704D404223378934345
:104A10003370F2E70025F0E7437902791B02134374
:104A20005B055A0DC3789B079B0F022B05D0032B08
:104A300015D00020012B08D0704702291ED000207D
:104A4000402393424041C0B2F6E702394B425941FC
:104A50000D4B9C46614491424041C0B2ECE70239A3
:104A60004B1E9941094B494219408023DB009C466B
:104A70000020614491424041C0B2DDE7044BD018B0
:104A800043425841C0B2D7E7FF03000040FCFFFF9C
:104A900000FEFFFF8A1870B5914207D27F264C783E
:104AA000052C04D00C7809198A42F8D870BD34005E
:104AB0008D782C4064000419ED0963550C780919B0
:104AC0008A42ECD8F2E7C046F0B5C64600B504000D
:104AD00006A805788020884617001E000002824242
:104AE00026D8E068002803D00121494202F090FB5B
:104AF0002069002803D00121494202F089FB434686
:104B0000236073045B0CED031D430023E0686381A5
:104B1000A780E5802381002801D002F051FB2069A5
:104B2000002801D002F04CFB012080BCB846F0BD4B
:104B30000020FAE710B5048941898288A3B288B2BF
:104B40008C4207D31B1A9BB2101C9A4200D9181C26
:104B500080B210BD5100091A5B189BB2F4E7C04641
:104B600003894089181A43425841C0B27047C04671
:104B700010B5048941898288A3B288B28C4207D3D8
:104B80001B1A9BB200209A4201D9D21A90B210BDD2
:104B90005100091A5B189BB2F4E7C04670B50400D7
:104BA00000690E00002803D00121494202F030FBC9
:104BB00025896089A288A9B283B285422BD3CD1AF8
:104BC000ADB2002D2DD0AA4208D291422FD3891A1E
:104BD0008BB263819A4203D89B1A9BB29A42FBD94B
:104BE000E28821685204520C53433000C918FDF783
:104BF0002FFF63890125591C89B2A2888B4212D9E3
:104C00005200891A89B220696181002801D002F01E
:104C1000D7FA280070BD5500ED1A4D19ADB2002D20
:104C2000D1D1618989B252009142ECDBE9E7891860
:104C30008BB26381CEE7C046F0B546464F46D646B6
:104C4000C0B50600006989469046002803D00121BE
:104C5000494202F0DDFA31897289B5888BB294B28B
:104C6000914254D31F1BBFB2002F4AD0BD4205D280
:104C7000AB4251D25B199CB22F0074814346B845B8
:104C80003DD89FB2A54203D8641BA4B2A542FBD96C
:104C9000F28831685204520C904662432B1B9BB23F
:104CA000891842469F4225D953439BB21A00484671
:104CB0009A46FDF7CDFE434648467D1B64195C438A
:104CC00031685044A2B2FDF7C3FE7189B588CB1993
:104CD0009BB26A00994216D99B1A9BB230697381C4
:104CE000002801D002F06CFA3800E0BCBA46B146A8
:104CF000A846F0BD48467A43FDF7AAFEE5E73B1C0F
:104D0000BFE773899BB26A009342E7DBE4E76F0079
:104D10003F1BDF19BFB2A7E75B1B9CB2ACE7C046E5
:104D2000F8B50400C0680E00002803D001214942F4
:104D300002F06EFA258920896189A288ADB283B21A
:104D40008FB2884228D3DB1B9BB29A4209D8E779FD
:104D5000FF0906D1E068002801D002F031FA3800DE
:104D6000F8BD2B00954203D39B1A9BB29342FBD212
:104D7000E28820685204520C53433100C018FDF7FA
:104D800067FEA2886B1C9BB252009D4209D99B1AF8
:104D90009BB201272381DDE75100C91B5B189BB241
:104DA000D3E79342F5DBF2E7F0B54546DE465746DA
:104DB0004E46E0B588460500140083B0002A6FD047
:104DC000C068002803D00121494202F021FA2E894F
:104DD000EB796A89B6B292B2DB0940D1AB889642D0
:104DE00067D259008A1AB21892B20027934230D97A
:104DF0009A1A171C92B2A24200D9271CEA88BFB2A5
:104E00005204520C9146F21992B29246FA1A92B298
:104E100093463400B34203D8E41AA4B29C42FBD2B6
:104E20004A46624328681B1B9BB280184A46BB4215
:104E300053D341467A43FDF70BFEAB885B00B24586
:104E400001D39A4503DB5246D31A9BB29A46534686
:104E50002B81E868002824D002F0B2F921E0AF8865
:104E6000BC4229D296424AD3B31A9BB279001B198D
:104E70008B4208DBD3199BB21E1BB6B29A46B242D4
:104E800042D9761AB6B2EB885B045B0C9946A3193B
:104E90009BB29A46E31B9BB29B463B002700B8E7B8
:104EA0000027380003B0F0BCBB46B246A946A04676
:104EB000F0BDB21A92B298E7002FCAD0EB88E41B7B
:104EC0005B045B0C5C4399461600D31900229BB22D
:104ED0009A4693463B00A0449BE7534399B20A008D
:104EE00001915C444146FDF7B3FD22004B465A4315
:104EF0000199286892B24144FDF7AAFD9DE7790027
:104F00008B1AF3189BB2B2E7B142BADDEB885B04AF
:104F10005B0C9946BEE7C04610B50400C068002887
:104F200003D00121494202F073F92069002803D01F
:104F30000121494202F06CF90023E068638123817A
:104F4000002801D002F03CF92069002801D002F0CD
:104F500037F9012010BDC04670B50400C0680D00CF
:104F6000002803D00121494202F052F920690028AB
:104F700003D00121494202F04BF97F21E379ED0191
:104F80001940E0682943E171002801D002F018F9C6
:104F90002069002801D002F013F9012070BDC0463D
:104FA000F0B5C646431E00B50A3315D807230400E2
:104FB0001A0008342240234200D171E01300093B5B
:104FC000A34209D31030841A01F0A8FA394A270005
:104FD0001568002D28D10EE001F0A0FA354A1368BB
:104FE000002B06D0002501F0A1FA280080BCB846AD
:104FF000F0BD0027002407212F4B194247D18025FF
:105000001900AD0200202D4E4D1970603160072649
:10501000083DB54315602A4AEB1A1360294A6860B7
:10502000286013604B600D60002FDBDD254F3E686C
:10503000A642D7D32148036804E01A68002A04D0A6
:10504000180013005968A142F7D3AB42CAD01D0023
:105050001A680835904602600A1B102A05D91919EA
:105060004A6042460A6001602100154A761A1068BB
:105070003E60864200D21660802212060A435A60C1
:1050800000221A60104A136801331360ABE7D81D81
:105090008843802189025D182D1A03000100B1E7C1
:1050A00001F03CFA034A27001568002DA3D0002C1C
:1050B000BCDA97E7941C0020501F00201420022027
:1050C000E41F0220D81F0220F01F022070B5002824
:1050D00007D0083843680400002B02DA0268002A6F
:1050E00000D070BD5B005B084360050001F016FA5C
:1050F000154A616813685B181360144B1A001B682B
:105100009C42FBD850681618B4420DD060188342F8
:1051100010D02360AA4200D015600D4A13680133F5
:10512000136001F003FADCE709185018516083425C
:10513000F3D1150007480068834203D0586841182E
:10514000186869602860E5E7D81F02201420022053
:10515000F41F0220941C00207047C046000000008D
:105160000B4A13681868203080F30988022080F306
:105170001488BFF36F8F3FBCAE4608BC04BC62B658
:105180001847C046C046C046C046C046C046C04696
:10519000881C00200000000000000000000000004B
:1051A000EFF30980164B1A6820381060F0C04446AF
:1051B0004D4656465F46F0C00D221207146E556EDE
:1051C000566F176F3038F0C008B572B601F0C8FAE4
:1051D00062B60CBC116808681030F0C8A046A94639
:1051E000B246BB4680F309880D2212073038F0C85A
:1051F0001466556656671767F0C81847C046C0461C
:10520000881C0020D02300B51B061A6D83B0D2077E
:1052100004D501219A6D1A6D1142FBD1D023FF22D2
:105220001B061A650023114A01931168EFF3108CD5
:1052300072B60B68002BFCD0BFF35F8F00230C48C5
:10524000126801680360BFF35F8F13608CF31088EE
:10525000084B01AA186800F0DDFA019B002B03D06F
:105260008022054B52051A6003B000BD841C00204B
:105270006C1F0220D41F022004ED00E010B5FDF7E2
:1052800077F8C04610B58024031F64041C60043BFB
:1052900019600349043B1960143B40381A6010BD83
:1052A0007D5200108022044B52051A60BFF34F8FCD
:1052B000BFF36F8F7047C04604ED00E072B6044A3A
:1052C000136801331360BFF34F8FBFF36F8F7047C5
:1052D000681F0220094A1368013B1360002B0CD1A0
:1052E00007490A68002A07D00B6006490968BFF31E
:1052F0005F8F136081F3108862B67047681F0220C9
:10530000201F0020501F0220EFF3108072B670475C
:1053100080F310887047C04610B5FFF7F5FF040012
:1053200001F00CFA002803D08022034B52051A60CA
:105330002000FFF7EDFF10BD04ED00E0002310B5E5
:10534000084A094C052023601360FCF7BBFEFA21D4
:105350008900FDF773F8054B0138186007232360B7
:1053600010BDC04618E000E010E000E014E000E0EE
:10537000FF22204B1204196810B50A431A60FF225D
:105380000220196812060A431A601B49404201F0C4
:1053900081FE01201949404201F07CFE0520184998
:1053A000404201F077FEFFF7C9FF0022154B1A605B
:1053B000D0231B06144A1C681470FF221A651A6D4C
:1053C000D20704D501219A6D1A6D1142FBD10F3419
:1053D000FF212000FBF7BCFC20000C49FBF7B2FAD0
:1053E00001212000FBF776FAFFF7BAFE01F0B8F9C9
:1053F000FCF7BEFF20ED00E0A15100101953001092
:1054000059510010681F0220CD0E002005520010D7
:10541000D02310B51B061868074B1B78834200D0B9
:1054200010BDEFF30583002B02D05B00C018F7E737
:1054300001F0D0FBF4E7C046CD0E00200A002B4956
:1054400003688C46022130B563449B10FF319940BC
:10545000274B83B01C78D0231B061B68090A9C428B
:105460001FD040BF234D03682C68A34234D023686B
:10547000002BFCD0BFF35F8F1F4C23680B432360CE
:105480002B68BFF35F8F002119600368D0200021D3
:1054900000064165BFF35F8F196082F3108803B087
:1054A00030BD40BF0368BFF35F8F0020186082F3F8
:1054B0001088EFF30583DBB2002B12D00F4B019065
:1054C00001AA186800F0A6F9019B002BE7D0802202
:1054D0000B4B52051A60E2E7074C20680843206036
:1054E000D4E7064B186800F04DF9D8E700FFFF2F0E
:1054F000CD0E0020841C00206C1F0220D41F02202F
:1055000004ED00E0F0B5CE46474680B51D00344BB3
:1055100014001A78D0231B061B688146884683B086
:105520009A420FD00368BFF35F8F00221A6081F3A5
:10553000108820002900FBF76BFF03B0C0BCB94600
:10554000B046F0BDFCF744F822002B000127121AE8
:105550008B41244E7F42B6185F41002F20DC1BD0C8
:105560004B461B68BFF35F8F00221A6088F31088D8
:105570001D4B5A6A954205D89B6A0120A342DCD292
:105580009542DAD18022194B52051A60BFF34F8F32
:10559000BFF36F8F0020D0E7FA239B009E42DFD33A
:1055A000FA220023300039009200FCF76DFF031E41
:1055B000D6D04A46404612680D490A600D49086037
:1055C0000D498C46022162449210FF3191400B4AF2
:1055D000090A106800930122002300F077F8C7E75A
:1055E000CD0E002018FCFFFF0040054004ED00E058
:1055F000201F0020501F022000FFFF2FD41F022079
:1056000010B5FBF749F9054A054B94466044800004
:10561000186000F04FF8034B186010BD40000034D4
:10562000841C0020D41F0220F8B5DE4657464E46A3
:105630004546E0B505000F00060000F06FFF296841
:105640002C6939430C362960A6422AD0002398469B
:105650008023DB049B4680235B049A4680239B04C3
:1056600099460EE019420AD057463A4202D04246C5
:105670001A4390464B46194301F016FA2968A64290
:105680000DD020005F460268646813021B0A3A428C
:10569000E8D00F001F40BB42E6D0A642F1D14346FE
:1056A0009943296000F042FFF0BCBB46B246A946D0
:1056B000A046F8BD10B51C20FFF772FC041E03D0F5
:1056C000002308C000F0B2F8200010BDF0B5C646B7
:1056D000060000B50D0090461F0000F01FFF346863
:1056E000002F13D125420BD04346002B0BD02300B3
:1056F000AB43336000F01AFF200080BCB846F0BD19
:10570000069B002B21D100F011FFF5E72B00234071
:105710009D42E9D0069B002BF5D0434680215A1EBE
:105720009341C9041B061943069A2943301D01F011
:1057300097F800F0FBFE00281CD001F083FA04006B
:10574000830107D52402240AD6E741464B1E99411E
:105750000906E9E7FFF7B2FD3468002F0DD12C42AE
:1057600005D04346002B02D02300AB433360FFF744
:10577000B1FDE7E7FFF796FDDFE723002B409D42F1
:10578000F5D1EEE7F8B5DE4657464E464546E0B55C
:1057900005000F00060000F0C1FE29682C6939439E
:1057A0000C362960A6422AD0002398468023DB04C9
:1057B0009B4680235B049A4680239B0499460EE017
:1057C00019420AD057463A4202D042461A439046FE
:1057D0004B46194301F068F92968A6420DD0200014
:1057E0005F460268646813021B0A3A42E8D00F0061
:1057F0001F409F42E6D0A642F1D14346994329601B
:1058000000F094FE2868F0BCBB46B246A946A0460C
:10581000F8BDC04610B5044C13000A00010020007A
:1058200001F024FC10BDC0462956001003000833C7
:1058300001224360C360036100235242826003601F
:105840007047C046002303617047C046030030B56F
:105850000D6808336A1C0DD01C005B681A68AA42E8
:10586000FAD94B60996003688C600133616008610C
:10587000036030BD04696368F3E7C04603694168AB
:1058800082688A6051605968814206D000220261B4
:105890001A68013A1A60186870475A60F6E7C046FD
:1058A000F0B5DE464E4657464546E0B585B00600A3
:1058B000FFF704FD4523F45C64B2002C21DD213B9D
:1058C000994621339A46B14409E0AA6BEB6B0396E3
:1058D0009A4245D3013CE3B264B2002B11D0B56CBF
:1058E000002DF2D1736A002B0BD0484601F074F8FA
:1058F0000028EFD001F068F9013CE3B264B2002B5C
:10590000EDD14523FF22F254FFF7E4FCFFF7D6FC6C
:105910004423F45C64B2002C16DD3500103504E03D
:10592000013CE2B264B2002A0ED03369002B0BD0E6
:10593000280001F051F80028F2D0013C01F044F9B0
:10594000E2B264B2002AF0D14423FF22F254FFF7FE
:10595000C1FC05B0F0BCBB46B246A946A046F0BDAE
:1059600053462A6CEF5CAB6B7FB29846002A14D189
:105970002B689B46002B2CD043460133AB637B1C2A
:105980001DD16B6A002BA5D02800243001F024F82B
:1059900000289FD001F018F9AEE7686803A9FDF769
:1059A00057F86B682A6C9B18AA686B609342E3D324
:1059B0002B686B6043460133AB637B1CE1D000F086
:1059C000B7FEB84200D885E7452301377FB2EF54D0
:1059D00080E7A86801F004F95B46AB6043460133F9
:1059E0000190AB637B1C09D16B6A002B0FD1019B2B
:1059F000002B00D16EE701F0E7F87DE700F098FE9C
:105A0000B842F4D9534601377FB2EF54EFE728008C
:105A1000243000F0E1FF0028E9D06BE7F0B5C6467E
:105A200000B5846C82B0A26BE36B002501909A42B2
:105A300004D3280002B080BCB846F0BD4523226CD8
:105A4000E65CA76B76B2002A1CD0606801A9FCF75F
:105A5000FFFF6368226C9B18A2686360934201D3C6
:105A60002368636000250137A763731C15D1636A3F
:105A7000002BDED02000243000F0AEFF0028D8D06C
:105A80000125D6E723689846002BEBD1A06801F0EA
:105A9000A7F843460500A360E5E700F049FE86420B
:105AA000C7D24523013676B2E654C2E7F8B5050001
:105AB0000E001700002841D0030C0A0C002B42D125
:105AC000002A30D1300068430300553336D85430B3
:105AD000FFF766FA041E31D00300002E31D1236097
