:020000041000EA
:1000000000B5324B212058609868022188439860DF
:10001000D860186158612E4B002199600221596106
:100020000121F02299502B49196001219960352056
:1000300000F044F80222904214D00621196600F024
:1000400034F8196E01211966002018661A6600F04E
:100050002CF8196E196E196E052000F02FF8012189
:100060000842F9D1002199601B49196000215960AB
:100070001A491B48016001219960EB211966A021F2
:10008000196600F012F800219960164914480160C1
:100090000121996001BC002800D000471248134993
:1000A000086003C880F30888084703B5996A0420EC
:1000B0000142FBD001200142F8D103BD02B5186610
:1000C0001866FFF7F2FF186E186E02BD00000240BE
:1000D000000000180000070000035F00212200005C
:1000E000F4000018222000A00001001008ED00E03C
:1000F00000000000000000000000000074B24E7A12
:1001000000200420F7010010C3010010C5010010F9
:10011000C1010010C1010010C1010010C101001097
:10012000C1010010C1010010C1010010C701001081
:10013000C1010010C1010010C9010010CB01001065
:10014000CD010010CD010010CD010010CD01001037
:10015000CD010010CD010010CD010010CD01001027
:10016000CD010010CD010010CD010010CD01001017
:10017000CD010010CD010010CD010010CD01001007
:10018000CD010010CD010010CD010010CD010010F7
:10019000CD010010CD010010CD010010CD010010E7
:1001A000CD010010CD010010CD010010CD010010D7
:1001B000CD010010CD010010CD010010CD010010C7
:1001C00000BE00BE00BE00BE00BE00BEEFF3058054
:1001D000103800BEF2EB8871C04B0010E44B0010E9
:1001E0003402001090A31AE700201F49086006C8D7
:1001F00081F3088810471D48006800282FD10DA4FE
:100200000ECC002902D000F012F8F9E71849194A7B
:10021000002000E001C19142FCD1174988471749ED
:1002200088471749884700BEFDE701C901C29A42C5
:10023000FBD37047E44B0010C00000209802002060
:10024000BC4D00100000042000000420BC4D001034
:10025000001004200010042000000000704709482E
:1002600001F0B6FD0047000008ED00E0000000D0FE
:1002700098020020480A02203D1C0010550300107F
:10028000311D00105756000006005250ABB36053AA
:10029000E84A001006005250861C0302F84A00107B
:1002A000060052505422A29D144B001005005250DB
:1002B000DE65F468BC4D0010F8B5C0460448054B37
:1002C00010B5834203D0044B002B00D0984710BDDB
:1002D000980200209802002000000000064807490C
:1002E000091A8B10C90FC91810B5491003D0044B57
:1002F000002B00D0984710BD9802002098020020E3
:100300000000000010B5074C2378002B09D1FFF73F
:10031000D5FF054B002B02D0044800E000BF0123AD
:10032000237010BD0006002000000000504A00109D
:10033000054B10B5002B03D00449054800E000BF71
:10034000FFF7CCFF10BDC0460000000004060020EF
:10035000504A001010B502F095F900F0B7F803F01C
:1003600057FCFEE7F0B5CE4647461C4A80B5936978
:10037000DB0626D41A4B202000215B5E1021994613
:10038000184B1C689C46FF23984601349369194218
:10039000FCD113689569284205D09369651C194200
:1003A0000DD12C00F2E745461D40A9450DD09369BB
:1003B0001842FCD115609369651C1942F1D063465F
:1003C0001C60C0BCB946B046F0BD2027034EB369DF
:1003D0001F42FCD10D233360E9E7C04600400340D3
:1003E0004C0900203406002070B5D0248025192047
:1003F0002406AD0400F0A2F865626420656103F094
:10040000BDFD6420A56103F0B9FDF6E7E12170B5FB
:10041000284C4902200001F009F90221002000F0D7
:1004200075F80221012000F071F8C022236B12023E
:100430001340214A0821136020000023012201F00B
:10044000B9F90021200001F0F3F914201B4900F054
:10045000F1F80121142000F0D3F85023A363626B5C
:10046000183B1340164A0A201360164B0022002541
:100470005D5F0D2620231449002A0FD1854214D038
:10048000A2691342FCD120600A7801310D3A504232
:1004900042410878D2B20028EED1FEE7A2691342A9
:1004A000F1D0A2691342F9D1EDE7A2691342FCD160
:1004B0002660E5E70040034030500340650300102C
:1004C000345003404C090020504A001070B580247D
:1004D0000026012582B0640022000023074901960E
:1004E0000095074803F06EFA0023220005490196A3
:1004F0000095054803F066FA02B070BD6C4A001022
:100500000D040010704A0010E9030010094A10B5EC
:1005100094464024830063441A68C00062408034DB
:1005200014408022520113431C60034B9C466044DC
:10053000416010BD04C00140004001400123D022B1
:100540008340120693629361094A402194468300D6
:1005500063441A68C0004A40803111408022520131
:1005600013431960034B9C46052360444360704766
:1005700004C0014000400140024B18688007C00FD2
:100580007047C04600C0064070B5EFF3108C72B6DD
:100590000D4D2B68002BFCD0BFF35F8F0724CB08D9
:1005A000C618C05C01230C40A3401C000440034259
:1005B00007D118433070BFF35F8F2C608CF3108825
:1005C00070BD100001F0B8FB2C0100D00021044BDD
:1005D000044ABFF35F8F02C39342FAD17047C0460B
:1005E000000100D0800100D0044A1078431CDBB227
:1005F000172B00D9102313707047C046B801002094
:1006000001238340002904D0034A1360034A136086
:100610007047034A1360FBE780E200E000E100E07E
:1006200080E100E0024B10309B688000C0587047AA
:1006300000ED00E070B50D00EFF3108672B60F4AC2
:100640001368002BFCD0BFF35F8F0D4B10309B68FD
:1006500084001B590B4A934203D09D4201D001F004
:1006600089FB074B9B681D51BFF35F8FBFF35F8F03
:100670000022024B1A6086F3108870BD240100D05E
:1006800000ED00E0CD010010F0B5DE4657464E46C5
:100690004546E0B50C0083B0EFF3108872B65D4AB2
:1006A0001368002BFCD0BFF35F8F5B4B5B499A68EC
:1006B000030010339F00D5598D4239D0A5424AD04E
:1006C000574EAA1B2F2A33D80122924682409146C8
:1006D0004846544A1268104001904846524A1060F9
:1006E000BFF35F8FEFF305829346002A35D0934224
:1006F00001D001F03FFB2A0053469A4390688442A0
:1007000008D175E04B005B189B00F3189868A04275
:1007100034D01A00062151560029F3DA844253D00E
:10072000019B002B26D04A46404B1A603D4B1A6075
:10073000394B9B68DD51BFF35F8FBFF35F8F0022A2
:10074000344B1A6088F3108803B0F0BCBB46B24645
:10075000A946A046F0BD0D00EAE72A0053469A4399
:1007600090688442D6D1062010561300002809DA7A
:100770000D0031E04A462C4B1A60D9E70620185686
:10078000002822DB42001118890074188A46A168EB
:100790009960E179D971062161569971002925DBAB
:1007A000A488F11A6405241554440919E0240905A4
:1007B000490D24022143998013181D4A9B0011788A
:1007C000F31899711070ABE713005946002914D142
:1007D000FF3191711749918015490A789A71164A2B
:1007E0009B1B5B415A43120D0A7099E71349E2E7DC
:1007F0000620105613000028C4DA114A1149D21AF3
:10080000083A5002400D014399800F4952080A43AB
:10081000DA8085E7240100D000ED00E0CD01001072
:10082000BC01002000E100E080E100E080E200E0A7
:10083000450A022001BDFFFFAAAA000001BD000079
:10084000F601002000F0FFFF00F8FFFF032310B5C2
:100850000400074A18409446C0009C43FC33834080
:100860006444226881409A4313000B43236010BD07
:1008700000E400E070B5EFF3058101240443EFF3D9
:10088000108C72B6214A1368002BFCD0BFF35F8F27
:100890001F4B05001F4AED1A6D416A43120D1E4D94
:1008A0008900AE6852B27658A6421CD0062159562D
:1008B00091421CD012215956914222D01E215956E4
:1008C000914220D02A2159560324914210D0134B33
:1008D00019781A708171BFF35F8F00220B4B1A6079
:1008E0008CF3108870BDAB680D4C5C50EFE70024B2
:1008F0006100091989005B18FF21997109499980E4
:10090000E5E70124F4E70224F2E7C046240100D021
:10091000BC010020AAAA000000ED00E0450A022068
:10092000CD01001001BDFFFF054B064A1360064ACA
:10093000136053609360D360136153619361704798
:100940008080808000E400E004E400E0024B9C46EC
:1009500061448900016070474000003410B5040014
:10096000FFF742FE01002000FFF7F0FF01235B428A
:100970006360BFF35F8F10BD10B50400FFF734FE56
:1009800001002000FFF7E2FF01235B4263600023C8
:100990002372BFF35F8F10BD83680B4810B5844688
:1009A000614462441201090159189B185C684A6845
:1009B0000120944201D802D00020C0B210BD1A68B4
:1009C0000B689A42F9D8F7E7FFFFFF0F074810B509
:1009D0000268EFF3108172B61368002BFCD0BFF3EE
:1009E0005F8F02F093F90020002110BD380900202C
:1009F000F8B5574645464E46DE46E0B598460CAB40
:100A00001C780DAB1B78070091469A460568002CB0
:100A10005ED1AC7B002C3BD0660029683619033EC2
:100A200089194B78AB73002B00D1EB7300238B70CB
:100A30004B700B702D4BE218BB6812019B184A4695
:100A40001A6042465A600A9A9A600B9ADA6000234A
:100A50008B704B700B706B7B9B46002B2BD0220056
:100A60005946A8686B6898472A68002816D05B46E4
:100A700058465B005B449619033BB070D118D35CB9
:100A8000002B00D073705B460C706B735C4513D009
:100A9000F0BCBB46B246A946A046F8BD5B465B002B
:100AA0005B44033BD3189C709119925D002A00D0DF
:100AB0005A705B460B706C734A464346387D00F0B3
:100AC00055FB051E0AD10E9B002BE1D01D70DFE700
:100AD000660029683619033E8919ABE75346002B97
:100AE000F1D12100386800F065FDECE7FFFFFF0F52
:100AF000F0B5DE4657464E4645460023E0B58BB07E
:100B00000893684B8200D45800239B46099000F05C
:100B1000A9FA02000B006068EFF3108A72B656461D
:100B200001680029FCD0B246BFF35F8F21684F7B7C
:100B30008C46002F2ED0A5685B49A946791809017B
:100B4000894449460868496805000E00AD1A9E416F
:100B5000002E5FDD02000B00099800F007FB002368
:100B60000022994600230692079300239846636863
:100B7000BFF35F8F5A461A608AF310884346002BF2
:100B800012D10028C3D10BB0F0BCBB46B246A94677
:100B9000A046F0BD00230022994600230692079349
:100BA000002300209846E2E7089B49461802384394
:100BB000C047626805000E00EFF3108A72B6136832
:100BC000002BFCD0BFF35F8F002E41DB2B003343A3
:100BD00002D02369002B56D12368D97B002905D088
:100BE0001A68480041185218033A57709A7B002A35
:100BF00000D19F73DF73E268013FD35D0133D355AA
:100C00005B4623616368BFF35F8F5A461A608AF3BD
:100C100010887CE7002E02D1002D00D09AE7002139
:100C2000604600F045FC4B461A685B6806920793E5
:100C30004B469B6898464B46DB689946E368DB1950
:100C4000013B1B7808931B020343236100208EE7BE
:100C50002369002BC0D0069A079B8021521BB34109
:100C600009068B4202D30122104B5242002104910B
:100C700001310391494601914146200002970091BC
:100C8000FFF7B6FEBCE700F0EDF92A0033001218BA
:100C90004B41802109068B42E8D30122034B52428B
:100CA000E4E7C04684060020FFFFFF0FFFFFFF7F41
:100CB00010B5144C6368002B04D00A211248FFF7CA
:100CC00045FE10BD2300114A1021206800F006FBEC
:100CD000032000F0BBF9032000F0B0FA03200C4918
:100CE00000F0FEF9FFF780FC0A4B9C4603232375B6
:100CF000D0231B061B6860446375074B800060604F
:100D0000DC60DAE7040200203809002099090010AD
:100D1000F10A00104000003484060020F0B5574668
:100D20004E464546DE46E0B585B0019310AB1B78D4
:100D30000600039300239A46984600927268EFF3E8
:100D4000108B72B61368002BFCD0BFF35F8F356831
:100D5000AC7B002C00D16FE067002B683F19033F8C
:100D6000DB195A78AA73002A00D1EA734B4AA118FA
:100D7000B2680901521800980199106051600E99EB
:100D800091600F99D16042469A705A701A706B7BCD
:100D90009946002B00D170E022004946A8686B6894
:100DA00098472A6800285BD04B4648465B004B4476
:100DB000D719033BB870D118D35C002B00D07B70DF
:100DC0004B460C706B734C4558D0F3681B19013BB4
:100DD00018787368BFF35F8F42461A608BF31088F0
:100DE0005346002B08D10002204305B0F0BCBB469F
:100DF000B246A946A046F0BD039B002B4BD00E9BEC
:100E000000200F999847030004000D000B4342D0C7
:100E100000291ADA009A019B121BAB410092019340
:100E200080221206934204D301231D4C5B4200939F
:100E30000194039B9A4681E77368BFF35F8F1C6040
:100E40008BF3108801204042CFE700F00BF980229D
:100E500024184D411206009401959542E9D3E3E729
:100E60004B465B004B44033BD3189C70D119D25DB9
:100E7000002A00D05A704B460B706C73307D009A7C
:100E8000019B00F073F9824600289ED02100306853
:100E900000F090FB99E70020A7E7C046FFFFFF0F97
:100EA000FFFFFF7FF0B5EFF30583CE46474680B5E1
:100EB00005000C0085B0002B0DD0324A0020536A8B
:100EC0009C4203D8926A0130AA4232D305B0C0BC1A
:100ED000B946B046F0BD2C4E029301932B4B020055
:100EE000009330000B00FFF719FF031EE5DD20BF64
:100EF0007168EFF3108772B60A68002AFCD0BFF35E
:100F00005F8FDAB294463068427B624516D0FF228A
:100F100001681A4089465100884649469044414438
:100F20000339897800290BD13269934210D131619C
:100F30000EE0E31A5A1E9341D8B2C7E7FF221A40C7
:100F4000F1681B0A8A18013A1278DBB29A4214D06F
:100F50007368BFF35F8F00221A6087F31088094B14
:100F600000205A6A9442B1D89B6A0130AB42ADD29C
:100F7000A41A631E9C41E0B2A8E7614600F01AFB88
:100F8000E6E7C0460040054004020020CD090010FD
:100F9000F0B5EFF30582D6464F4646461000C0B581
:100FA0001038EFF3108872B6214C2368002BFCD068
:100FB000BFF35F8F0123190081401E4D1F0069633D
:100FC000AA461D4D29601D4D2E78AC463500C54002
:100FD0002F402B4215D053465F6A194B8500EB58C2
:100FE0009F4218D36246174B8E43EB581670BFF3DF
:100FF0005F8F0022226088F31088002B06D098476C
:1010000004E0BFF35F8F276088F31088E0BCBA4626
:10101000B146A846F0BD0C4B92009C466244136852
:101020001360BFF35F8F0023236088F31088EDE720
:10103000280100D0004005403C700540460A0220CF
:101040003C0900201C060020D03F054010B5034B92
:1010500001001800024AFFF797FA10BD440A022067
:101060007C4A0010034B596A0A00986A596A8A42FE
:10107000FAD170470040054070B504000D00174AD2
:10108000536A1900966A536A8B42FAD130001900EC
:1010900024184D41AB4216D813D0104B2A005B6A7E
:1010A0009D4203D90D494B6A9342FCD3934207D129
:1010B0000A4A02E0516A994202D1916AA142F9D3E7
:1010C00070BDA642E9D9054B5B6A1C005A1CEFD0E3
:1010D000012201246442E5175242E3E70040054043
:1010E00070B504000D00EFF3108672B61A4A13684B
:1010F000002BFCD0BFF35F8F002D1BD02000FFF72B
:1011000091FA164981420AD02000FFF793FA012193
:101110002000FFF775FA0123A340114A1360114B19
:10112000A400E550BFF35F8F00220B4B1A6086F3DB
:10113000108870BD0121A1400A4BA200D5500A4B76
:1011400020001A788A4305491A70FFF79DFA00219A
:101150002000FFF755FAE5E7280100D0910F0010B5
:10116000386005401C060020460A0220F0B54F46B4
:10117000D6464646C0B507002B4C616A0D00A66AEC
:10118000616AA942FAD18B4208D805D00120E0BC9F
:10119000BA46B146A846F0BDB242F7D9EFF3108A7D
:1011A00072B6224801680029FCD0BFF35F8F012589
:1011B000BD401F491C4C8846097889462943C9B25D
:1011C0008C46414660460870391D890065630A51A6
:1011D0001849B8004350216A0020294219D0616A99
:1011E0000800A66A616A8142FAD18B4219D801D1FE
:1011F000B24216D8CC450BD00B4B1F221D625D634B
:1012000001233A4093400C4A136043464A461A7001
:101210000120BFF35F8F0022044B1A608AF310880D
:10122000B5E70020F5E7C04600400540280100D0A2
:10123000460A02203C09002080E200E0EFF3108C17
:1012400072B60A490B68002BFCD0BFF35F8F0123F5
:101250008340074A0748136202789A430270BFF33B
:101260005F8F00230B608CF310887047280100D03B
:1012700000400540460A022070B505000E0014002B
:10128000002923D0002A12D080686B68984729680B
:1012900000280ED063001B197200033B9219CB1873
:1012A000033A9E7088188A5C002A11D104703000BD
:1012B00070BD73009B196200033B1219CB18033AEF
:1012C0009C7088188A5C002A05D106702000EFE720
:1012D0005A700470EBE75A700670F7E730B5836018
:1012E0000023CCB243730133047342608373C4732D
:1012F0000D000068012C06D9421C0133DBB21370CB
:1013000003329C42F9D1FF2129404B005B18C018E1
:1013100000230338437030BD70B505000C1E07D0A4
:10132000630001681B19033BCB185A78002A01D1CE
:10133000200070BD500080180338091800204E7836
:101340004870210058702800FFF796FF3100040014
:101350002800FFF7E1FF0600002C26D00028E7D088
:1013600021003200A8686B689847296800280ED0D1
:1013700073009B196200033B1219CB18033A9C704F
:1013800088188A5C002A00D05A700670D0E7630083
:101390001B197200033B9219CB18033A9E708818F0
:1013A0008A5C002A00D05A7004703400C0E7C0463E
:1013B000F0B557464546DE464E46E0B50D006F0097
:1013C00001687F19033F0400C85D83B00192CA1908
:1013D000002850D043001B18033BCB185E78B4465E
:1013E000002E1AD1019E002E42D0E67B002E04D0A2
:1013F00073009B19CB18033B5D70A37B002B00D1BE
:10140000A573E57300282FD10023537003B0F0BCFF
:10141000BB46B246A946A046F0BD72006244033AFC
:101420008A185178884600215170894659703200D7
:1014300001002000FFF720FF43468246002B07D023
:101440005B0021684344033BCB185A78002A16D12D
:10145000424651462000FFF70FFF2168019BCA1941
:10146000002BC2D10028CFD043001B18033BCB1860
:1014700000219970C8E7019B002BB6D1C4E750004A
:1014800080180338091848788346484648705870D1
:1014900041462000FFF7F0FE594680462000FFF746
:1014A0003BFF414602002000FFF7E6FE8046CFE703
:1014B000F0B557464546DE464E46E0B583B001914D
:1014C000457B04006F0000687F19033FC15DC219AE
:1014D000002952D04B005B18033BC3185E78B4461A
:1014E000002E1CD1019E002E44D0E67B002E04D09D
:1014F00073009B19C318033B5D70A37B002B00D1C5
:10150000A573E573002931D100232800537061735E
:1015100003B0F0BCBB46B246A946A046F0BD72007F
:101520006244033A82185078804600205070814609
:10153000587032002000FFF79FFE43468246002B82
:1015400007D05B0021684344033BCB185A78002A3C
:1015500017D1424651462000FFF78EFE019B010045
:101560002068C219002BC0D10029CDD04B005B18D8
:10157000033BC31800209870C6E7019B002BB4D131
:10158000C2E7500080180338091848788346484657
:101590004870587041462000FFF76EFE594680465D
:1015A0002000FFF7B9FE414602002000FFF764FE6D
:1015B0008046CEE770B5050000292CD0437B8B42D6
:1015C0002ED04C0000686418033C0419A278002A4D
:1015D00021D053009B18033BC25CC6188A4202D13B
:1015E0001BE0002A08D053009B18033BC3185A780D
:1015F0008A42F6D162785A70002301222800A37033
:101600006370FFF7D5FE697B02002800FFF734FE08
:101610006873012000E0002070BD63783370EBE751
:1016200001221900FFF7C4FEF2E7C046F8B5CE4626
:101630004746040080B506200E0000F08DFA051E16
:1016400051D0524B5249E21853425A418023DB0396
:101650009C4692054F4B62441A604F4B1A60100033
:101660008B689843FBD1494B4C4AE31859424B4194
:1016700080215B0049000620995200F06DFA31008C
:10168000C00000F0D7FBC30932D1402201219046AF
:101690006162A362256BEB0736D427008026E36ADC
:1016A00000232C3776013E4333600620256300F08B
:1016B00053FA4146800000F0BDFB236B05009846BD
:1016C000DB073BD46023E26A5A400E331340336099
:1016D00043462363802310229B013B431A60304B17
:1016E00023630323A3642800C0BCB946B046F8BDF9
:1016F0002C4A93423FD900232B492C4A6162A362B2
:10170000256B9046EB07C8D52200C02330329B01E1
:101710001343234A06201A60666AA36AB601F618C4
:1017200000F01AFA224900F085FBB60201003000F1
:1017300000F080FB0021FFF79FFCAEE72200C023F2
:1017400030329B011343164A06201A60636AA26A6C
:101750009B019946914400F0FFF94B4614499B02C6
:10176000994600F067FB0100484600F063FB00214A
:10177000FFF782FCA6E77F229901884602400132EA
:10178000520819009044130082E7C0460080FCBF55
:1017900000C0004000E0004000F000404C09002084
:1017A00001030000FEFF0000FFFF0000C0FF3F003C
:1017B0004E0E00000539013AF8B5D2004C01050083
:1017C0001443002B06D0013B5A4253419B00234354
:1017D00002241C432E6BF3070BD46E22EB6A290004
:1017E00063401A4080232C315B010B431A602E6347
:1017F000F8BD2A00C02330329B0113430A4A062059
:101800001A606F6AAB6ABF01FF1800F0A5F90749BB
:1018100000F010FBBF020100380000F00BFB0021BC
:10182000FFF72AFCD9E7C046010300004E0E000076
:10183000F8B5056B04000E01EB070BD41021E36A29
:1018400022007340194080232C325B01134319603E
:101850002563F8BD0200C02330329B0113430A4ABE
:101860001A60476A836ABF010620FF1800F074F906
:10187000064900F0DFFABF020100380000F0DAFA92
:101880000021FFF7F9FBD9E7010300004E0E00002D
:1018900010B50C2082B000F0B5F9FEF76DFE0028FF
:1018A00010D08B4B8B488B498B4A186059609860DD
:1018B000D960186159619861D961186259625A6298
:1018C00002B010BD854CA06700F0A4F90122844B42
:1018D0001A60636C012BFCD10322824B1A607F4A91
:1018E000936B012BFCD1013301217F4A7F48009388
:1018F000043300F037F905237D4A009301217D4828
:1019000000F030F97C4B5A68FF2A02D8802252003E
:101910005A608022734B6E4C12011A6021690029B3
:1019200007D0606900F086FA013043001B18033BC2
:10193000FDD2E022704B714819680A400260022211
:101940001968514001320A40042102609A6811422C
:10195000FCD080216A4A09011160802252005A603D
:10196000684B2361684B5968FF2900D85A600322ED
:1019700001215B4B1A60644A93681942FCD0E02352
:101980001068034061480360126803234A40022143
:1019900013405D4A036093681942FCD080215C4B80
:1019A0000901196080215B4B4900516063615A4B0A
:1019B0005A68FF2A00D859608022584B12011A60D9
:1019C000E169002907D0606900F034FA0130430072
:1019D0001B18033BFDD2E0234F4A11680B405049CE
:1019E0000B6080214F4B090119608021394B490060
:1019F0005160E3614C4B5A68FF2A00D8596080223D
:101A00004A4B12011A60216A002907D0606900F070
:101A100011FA013043001B18033BFDD2E023424A78
:101A200011680B4042490B608021424B090119604B
:101A300080235B0053608022264BD20223623E4B00
:101A40005968914200D25A6080223C4B12011A60C0
:101A5000616A002907D0606900F0ECF901304300A9
:101A60001B18033BFDD2E023334A11680B40344975
:101A70000B608021334B090119608023DB02536026
:101A8000154B6362304B5A68FF2A02D880225200FD
:101A90005A6080222D4B12011A60A169002907D0DB
:101AA000606900F0C7F9013043001B18033BFDD209
:101AB000E023254A11680B4025490B608021254B06
:101AC0000901196080235B005360124BA361F7E6A4
:101AD00098020020006CDC021BB700000080004070
:101AE0003CB0004030B00040002F685900800240F8
:101AF000008C864700C0024030800040309000409B
:101B000030A00040001BB7003C8000403C900040EB
:101B10003CA00040405973075480004054B000403E
:101B20005490004054A000406080004060B00040ED
:101B30006090004060A000406C8000406CB00040AD
:101B40006C9000406CA000404880004048B00040CD
:101B50004890004048A00040014B8000C0587047AA
:101B600098020020F8B5040021481D0017000E005F
:101B700000F060F90100380000F05CF9069B2904D0
:101B80001B0319432368002B20DB1A4B1A4DE21864
:101B900053425A4180235B019C461203174B624417
:101BA0001A60174B1A601700AB689F43FBD1C02225
:101BB000231D92011A4321232660A060136023682D
:101BC000002BFCDA0823E1601360F8BD3F23226894
:101BD0001340B342D9D1A3681B051B0D8342D4D156
:101BE000EE22E368D20213408B42CED1EDE7C0462D
:101BF000001BB7000040FDBF00C0004000E00040F7
:101C000000F000408023024A9B000343D3627047E8
:101C100000800540AA23064A1B0113602F230549B3
:101C2000D360054B19605368002BFCDA7047C0463F
:101C30000040024000B0FA00006002402C4B2D4AE8
:101C400070B51A602C4A2D4B2D491A6014008B6810
:101C50009C43FBD12B4D2C4EB54208D2013E761B46
:101C6000B60808CD984723000134B342F9D1FFF7F5
:101C70000FFE264A214B1A60214A9368DB43DB01A1
:101C8000DD09002BF9D14022214B224C224E9A67CC
:101C90005A671A67DA66B44208D223682000002B1C
:101CA00020D00C34FEF768FEB442F6D31B4C1C4E19
:101CB000C022B168200000F0ADFBB460FEF786FCE6
:101CC000FEF732FEFEF7F4FF164C174EB44208D270
:101CD000013E361BB60808CC98472B0001359E42C2
:101CE000F9D170BD0834FEF739FEB442D5D3DDE733
:101CF00000E00040BFCDFBFEFE7F3C0000F0004056
:101D000000C000408002002090020020FFFFFF0181
:101D100000F001407002002080020020000000203E
:101D200000ED00E0900200209802002000BEFDE7D8
:101D300010B5FFF7FBFFC0460FB400B5084883B0ED
:101D400000F018FC049B002B07D005A91800019196
:101D500000F01EF8034800F00DFC0120FFF7E6FF3D
:101D6000A04A0010B04A001010B50148FFF7E4FF88
:101D7000B44A001010B50148FFF7DEFFC44A001056
:101D800010B5002800D110BD00F0A8FBFBE7C0464D
:101D900010B5094A0300146884B0002C08D0012251
:101DA00000910648524203A9A047012004B010BD8B
:101DB00000F0E0FB0020F9E780060020811D001004
:101DC00001480421014B184730020020F11D00108A
:101DD000142310B50100188804331B88984710BDE0
:101DE000162310B50100188802331B88984710BDD0
:101DF000F8B54746CE4680B50F1E19D01423994634
:101E0000043304000025012698464B4618884346B3
:101E100021681B88984701C4431E98410135404200
:101E20000640AF42F1D13000C0BCB946B046F8BD63
:101E30000126F8E7114A936F9B0813D2106651668A
:101E4000002905D0FFE7FFE7FFE7516F106F7047EC
:101E500004B5002801D00020C04302F0E9FD0021B4
:101E600004BDC046F0B5146E556E576F166FFFF780
:101E7000E5FF1466556657671667F0BD000000D091
:101E800094464A4A926F9208624601D228E0C046C0
:101E9000F0B5464E346E756E776F366F00F020F8F1
:101EA0009446424A14665566576716676246F0BD07
:101EB00094463E4A926F9208624601D254E0C04670
:101EC000F0B53A4E346E756E776F366F00F04CF8A1
:101ED0009446364A14665566576716676246F0BDE3
:101EE000002B24DB11D000293EDA00B5C943404263
:101EF00000D1013100F038F8C943404200D101312E
:101F0000DB43524200D1013300BD002AEBD100284F
:101F100001D1002905D00020C90FC90701D1C04354
:101F2000410800B502F07CFD0022002300BD00B591
:101F300000290ADBDB43524200D1013300F014F8E0
:101F4000C943404200D1013100BDC943404200D1E4
:101F50000131DB43524200D1013300F005F8DB438D
:101F6000524200D1013300BD002923D1002B18D1EA
:101F7000002A0CD0BC460D4F38667A66002100233B
:101F8000FFE7FFE7FFE77A6F386F67467047002883
:101F900001D00748010000B502F042FD00220023F5
:101FA00000BD02000B00002000217047000000D09F
:101FB000FFFFFFFF002B00D0BFE0130C28D1002A49
:101FC000E7D080B4114F39667A66FFE7FFE730B497
:101FD000040C7B6F396F1B0423433B667A66FFE773
:101FE000FFE7FFE7C04684B27B6F3D6F1B042343CE
:101FF0003B667A66FFE7FFE7C04600232C042D0C02
:102000007A6F386F00196941B0BC7047000000D08A
:10201000F0B594460025140E01D112020835140FB4
:1020200001D112010435940F01D192000235D40F71
:1020300001D152000135D40B0134254F7C66254C6B
:102040003C660E0C93B2FFE7FFE7FFE73C6F664389
:10205000360C7703BE467343DF0B5B04C01AB941ED
:10206000130C7343DB18C91ACE086643360CB6440A
:1020700093B273431F0F1B01C01AB941130C734372
:102080001F0B1B05C01AB941860D8F023E436643E4
:10209000360C092D24DB520A7243801A7703460A54
:1020A0006643360C16235B1BDE40DF40BF196446D7
:1020B0006643821B7046043506330100D940A840B0
:1020C000C01900D30131A24206D20023F0BD0000A6
:1020D000000000D0FFFFFFFF121B0130F3D3F1E738
:1020E00009277F1BFE406446A2B27243801A00D2C9
:1020F0000139220C7243130C1204821A99410B000D
:102100007046043513370100F940A840801900D308
:102110000131002B02D1A2420AD2F0BD013000D31E
:102120000131121BFAD2013BF8D1A24200D2F0BD1C
:10213000013000D30131121BF7E7F0B51C0C00D0C1
:1021400080E00CB400251C0A04D11B02160E334398
:10215000120208351C0B04D11B01160F3343120168
:1021600004359C0B04D19B00960F3343920002353B
:10217000DC0B02D192185B4101351C0097186441B9
:102180000134464F7C66464C3C660E0CFFE7FFE789
:10219000FFE7C0463C6F6643360C7703BE4697B2F6
:1021A0007743C01B00D20139C01B00D201399FB256
:1021B0007743C91BC91B170C77437E04FF0B801B99
:1021C000B941CE086643360C0C2D33DBB644120BF6
:1021D0001F053A431B0B97B27743C01B00D201394E
:1021E0009FB27743C91B170C77433E043F0C801BFB
:1021F000B941860D8F023E43664329277F1BFE406F
:102200000C3D7746AF40BF1930BCA2B2ABB27243AF
:102210007343801A9941220C7243130C1204801AE2
:10222000994102000B000137001BA941F9D2781E29
:102230000021F0BD0C277F1BFE4077467F0BAF408F
:10224000FF19E0E700245D1C07D0144F7D66396656
:10225000FFE7FFE7FFE7FFE73C6F95B29EB26543FC
:102260006643401BB141150C1E0C654366433604A2
:102270002F0C3E432D04401BB141994204D2020071
:102280000B0020000021F0BD01D19042F7D3801A4D
:10229000994101349942F2D3F6E70000000000D0E2
:1022A000FFFFFFFF132370B51D78012D15D010DD42
:1022B0001D48FFF795FD1D4C01008022200000F015
:1022C000A9F8022D2DD01A48FFF782FD194B18608E
:1022D00070BD194B154CA364F5E7174B134C2360E5
:1022E0006360A360E36023616361A361E3612362D0
:1022F0006362A362E36223636363A363E3632364B0
:102300006364A364E36423656365A365E36523668F
:102310006366A366E36623676367A367E367A364F3
:10232000D1E7054BA364CEE753440000C00300206F
:102330004C330000340900203D23001007B56046EF
:1023400001880A0A0230DF2AFAD1C9B2820804D30E
:10235000028840880004104300E00068014A5050A1
:10236000039007BDC0030020132310B512481C784A
:10237000FFF736FD0100012C0AD003DD80220F4853
:1023800000F048F80E48FFF723FD0E4B186010BD13
:102390000A4C5422200000F03DF80B4B6365A36506
:1023A000E36523666366A366E36623676367A367E3
:1023B000E3672362E361E5E753460000C0040020C1
:1023C0004C33000034090020CD23001007B56046CF
:1023D00001880A0A0230DF2AFAD1C9B2820804D37E
:1023E000028840880004104300E00068014A505011
:1023F000039007BDC004002001480421014B184789
:1024000040020020F11D0010014B1B68184700001E
:1024100040020020014B5B6818470000400200208A
:10242000F0B546464F46D646C0B5437D80460E00C1
:102430001700002B4BD0002A32DD274B01259A468E
:102440004B1E00240020994607E0335D0A2B2CD058
:102450002B0001340135BB4213DA002CF5D133785F
:102460000A2BF5D143461B7D002BF1D14346504644
:1024700002211B68984728002B0001340135BB421C
:10248000EBDB874204DD4346391A1B683018984756
:10249000F619013E33780D3B5A42534142461375BB
:1024A000E0BCBA46B146A846F0BD4B461B5D0D2BBD
:1024B000CED0A042DADA4346211A1B68301898477A
:1024C0004346504602211B6898472800D4E703681A
:1024D000110030009847E3E7444B0010F0B5CE46BA
:1024E000474680B583B06B460600DD1D2870FEF7B9
:1024F000B9FD00231A4A12184B41802109068B426C
:1025000002D30122174B524217490800884602F0B5
:1025100097FA164B81461C68002C14D0144F02E029
:102520002469002C0FD02368002BF9D03B68002BC6
:1025300001D0A342F4D1200001222900FFF770FF4F
:102540002469002CEFD14B46002B05D1300003B09D
:10255000C0BCB946B046F0BD404602F059FAF5E7B6
:1025600040420F00FFFFFF7F780200207806002026
:102570007C060020F0B5DE4657464E464546E0B59F
:1025800085B0070002F012FA0600FEF76BFD00238B
:102590002B4A12184B41802109068B4202D301229B
:1025A000284B5242284908008B4602F049FA274B33
:1025B00001901C689A46002C3BD0254B984602ABF4
:1025C000DD1D0A23994602E02469002C17D02368F8
:1025D000002BF9D043461B68002B01D0A342F3D156
:1025E000200032003900FFF71BFF4B46200001227C
:1025F00029002B70FFF714FF2469002CE7D1019B01
:10260000002B18D153461C68002C06D06368002BA1
:102610000BD098472469002CF8D1300005B0F0BCED
:10262000BB46B246A946A046F0BD2469002CEDD1B8
:10263000F3E70028F1D0584602F0EAF9E2E7C04695
:1026400040420F00FFFFFF7F780200207806002045
:102650007C0600200A4A1368002B05D10CE01A0002
:102660001B691032002B07D09842F8D1002902D103
:1026700003691360016170470029FCD01060FAE71C
:102680007806002010B500F0CFF8012010BDC0463C
:10269000F0B5002915DD0E4B0D271A680D4B0E4CB9
:1026A000D3185D426B41451820215B001E5F047802
:1026B000A64207D093691942FCD101301460A842A8
:1026C000F5D1F0BD93691942FCD11760F2E7C0461D
:1026D000500900200080FCBF4C09002030B50400E8
:1026E0000D1E30DD00201021204B013C1A6893693B
:1026F000194217D1013093691942FCD11368235450
:102700008542F4D11A4B1B68002B09D05023382185
:102710009363536B3432194080235B011343196078
:1027200028000FE0124B1B68002B09D050233821E2
:102730009363536B3432194080235B011A43116059
:10274000002810D030BD0A4B1B68002B0BD0502244
:102750003821064B1B689A635A6B34331140802230
:1027600052011343196003204042EBE75009002057
:102770002C060020064B10B51B68002B06D000214C
:10278000044A12689163044A1068984710BDC04615
:102790002C06002050090020300600201D4BF0B50B
:1027A0001A68C64698461C4B0E00D31859424B4136
:1027B0001A4F14331C00050000B53B68002807D0F1
:1027C000002B11D0164B3D601E6080BCB846F0BD9A
:1027D000002BF7D0906300212000FDF711FF2000AF
:1027E0001049FDF751FFEDE720000E49FDF722FFEC
:1027F00001212000FDF704FF4346502238211B68C9
:102800009A635A6B3433114080225201134319608A
:10281000D8E7C046500900200080FCBF2C060020ED
:1028200030060020752700100C4B10B51B780C4BA0
:102830000C4C1B780C4B022100202360FDF766FE38
:1028400002210120FDF762FEE12120684902FEF726
:10285000EDFE01210548FFF7FDFE10BDE04B001025
:10286000DC4B0010500900200040034050020020C3
:10287000F0B5C646431E00B50A3315D80723040039
:102880001A0008342240234200D171E01300093BB2
:10289000A34209D31030841A01F0A8FA394A27005C
:1028A0001568002D28D10EE001F0A0FA354A136812
:1028B000002B06D0002501F0A1FA280080BCB84604
:1028C000F0BD0027002407212F4B194247D1802556
:1028D0001900AD0200202D4E4D19706031600726A1
:1028E000083DB54315602A4AEB1A1360294A68600F
:1028F000286013604B600D60002FDBDD254F3E68C4
:10290000A642D7D32148036804E01A68002A04D0FD
:10291000180013005968A142F7D3AB42CAD01D007A
:102920001A680835904602600A1B102A05D9191941
:102930004A6042460A6001602100154A761A106812
:102940003E60864200D21660802212060A435A6018
:1029500000221A60104A136801331360ABE7D81DD8
:102960008843802189025D182D1A03000100B1E718
:1029700001F03CFA034A27001568002DA3D0002C73
:10298000BCDA97E7A406002054090020040A0220BC
:10299000D4090220C8090220E009022070B50028ED
:1029A00007D0083843680400002B02DA0268002AC6
:1029B00000D070BD5B005B084360050001F016FAB3
:1029C000154A616813685B181360144B1A001B6882
:1029D0009C42FBD850681618B4420DD06018834250
:1029E00010D02360AA4200D015600D4A136801334D
:1029F000136001F003FADCE70918501851608342B4
:102A0000F3D1150007480068834203D05868411885
:102A1000186869602860E5E7C8090220040A0220F6
:102A2000E4090220A40600207047C0460000000010
:102A30000B4A13681868203080F30988022080F35D
:102A40001488BFF36F8F3FBCAE4608BC04BC62B6AF
:102A50001847C046C046C046C046C046C046C046ED
:102A600098060020000000000000000000000000A8
:102A7000EFF30980164B1A6820381060F0C0444606
:102A80004D4656465F46F0C00D221207146E556E35
:102A9000566F176F3038F0C008B572B601F0C8FA3B
:102AA00062B60CBC116808681030F0C8A046A94690
:102AB000B246BB4680F309880D2212073038F0C8B1
:102AC0001466556656671767F0C81847C046C04673
:102AD00098060020D02300B51B061A6D83B0D207DC
:102AE00004D501219A6D1A6D1142FBD1D023FF222A
:102AF0001B061A650023114A01931168EFF3108C2D
:102B000072B60B68002BFCD0BFF35F8F00230C481C
:102B1000126801680360BFF35F8F13608CF3108845
:102B2000084B01AA186800F0DDFA019B002B03D0C6
:102B30008022054B52051A6003B000BD94060020A8
:102B40005C090220C409022004ED00E010B5FFF783
:102B50000BF9C04610B58024031F64041C60043BBD
:102B600019600349043B1960143B40381A6010BDDA
:102B70004D2B00108022044B52051A60BFF34F8F7B
:102B8000BFF36F8F7047C04604ED00E072B6044A91
:102B9000136801331360BFF34F8FBFF36F8F70471C
:102BA00058090220094A1368013B1360002B0CD11D
:102BB00007490A68002A07D00B6006490968BFF375
:102BC0005F8F136081F3108862B670475809022046
:102BD0003009002054090220EFF3108072B67047CC
:102BE00080F310887047C04610B5FFF7F5FF04006A
:102BF00001F00CFA002803D08022034B52051A6022
:102C00002000FFF7EDFF10BD04ED00E0002310B53C
:102C1000084A094C052023601360FEF79DFFFA2146
:102C20008900FFF707F9054B013818600723236077
:102C300010BDC04618E000E010E000E014E000E045
:102C4000FF22204B1204196810B50A431A60FF22B4
:102C50000220196812060A431A601B49404201F01B
:102C600081FE01201949404201F07CFE05201849EF
:102C7000404201F077FEFFF7C9FF0022154B1A60B2
:102C8000D0231B06144A1C681470FF221A651A6DA3
:102C9000D20704D501219A6D1A6D1142FBD10F3470
:102CA000FF212000FDF7D2FD20000C49FDF7C2FCFA
:102CB00001212000FDF7A4FCFFF7BAFE01F0B8F9EE
:102CC000FFF752F820ED00E0712A0010E92B001008
:102CD000292A00105809022068020020D52A001075
:102CE000D02310B51B061868074B1B78834200D011
:102CF00010BDEFF30583002B02D05B00C018F7E78F
:102D000001F0D0FBF4E7C046680200200A002B491E
:102D100003688C46022130B563449B10FF31994013
:102D2000274B83B01C78D0231B061B68090A9C42E2
:102D30001FD040BF234D03682C68A34234D02368C2
:102D4000002BFCD0BFF35F8F1F4C23680B43236025
:102D50002B68BFF35F8F002119600368D02000212A
:102D600000064165BFF35F8F196082F3108803B0DE
:102D700030BD40BF0368BFF35F8F0020186082F34F
:102D80001088EFF30583DBB2002B12D00F4B0190BC
:102D900001AA186800F0A6F9019B002BE7D0802259
:102DA0000B4B52051A60E2E7074C2068084320608D
:102DB000D4E7064B186800F04DF9D8E700FFFF2F65
:102DC00068020020940600205C090220C409022049
:102DD00004ED00E0F0B5CE46474680B51D00344B0B
:102DE00014001A78D0231B061B688146884683B0DE
:102DF0009A420FD00368BFF35F8F00221A6081F3FD
:102E0000108820002900FEF74DF803B0C0BCB94679
:102E1000B046F0BDFEF726F922002B000127121A5A
:102E20008B41244E7F42B6185F41002F20DC1BD01F
:102E30004B461B68BFF35F8F00221A6088F310882F
:102E40001D4B5A6A954205D89B6A0120A342DCD2E9
:102E50009542DAD18022194B52051A60BFF34F8F89
:102E6000BFF36F8F0020D0E7FA239B009E42DFD391
:102E7000FA220023300039009200FFF701F8031E08
:102E8000D6D04A46404612680D490A600D4908608E
:102E90000D498C46022162449210FF3191400B4A49
:102EA000090A106800930122002300F077F8C7E7B1
:102EB0006802002018FCFFFF0040054004ED00E020
:102EC000300900205409022000FFFF2FC40902200E
:102ED00010B5FDF789FB054A054B94466044800018
:102EE000186000F04FF8034B186010BD400000342C
:102EF00094060020C4090220F8B5DE4657464E4627
:102F00004546E0B505000F00060000F06FFF296898
:102F10002C6939430C362960A6422AD000239846F2
:102F20008023DB049B4680235B049A4680239B041A
:102F300099460EE019420AD057463A4202D042461C
:102F40001A4390464B46194301F016FA2968A642E7
:102F50000DD020005F460268646813021B0A3A42E3
:102F6000E8D00F001F40BB42E6D0A642F1D1434655
:102F70009943296000F042FFF0BCBB46B246A94627
:102F8000A046F8BD10B51C20FFF772FC041E03D04C
:102F9000002308C000F0B2F8200010BDF0B5C6460E
:102FA000060000B50D0090461F0000F01FFF3468BA
:102FB000002F13D125420BD04346002B0BD023000A
:102FC000AB43336000F01AFF200080BCB846F0BD70
:102FD000069B002B21D100F011FFF5E72B002340C9
:102FE0009D42E9D0069B002BF5D0434680215A1E16
:102FF0009341C9041B061943069A2943301D01F069
:1030000097F800F0FBFE00281CD001F083FA0400C2
:10301000830107D52402240AD6E741464B1E994175
:103020000906E9E7FFF7B2FD3468002F0DD12C4205
:1030300005D04346002B02D02300AB433360FFF79B
:10304000B1FDE7E7FFF796FDDFE723002B409D4248
:10305000F5D1EEE7F8B5DE4657464E464546E0B5B3
:1030600005000F00060000F0C1FE29682C693943F5
:103070000C362960A6422AD0002398468023DB0420
:103080009B4680235B049A4680239B0499460EE06E
:1030900019420AD057463A4202D042461A43904655
:1030A0004B46194301F068F92968A6420DD020006B
:1030B0005F460268646813021B0A3A42E8D00F00B8
:1030C0001F409F42E6D0A642F1D143469943296072
:1030D00000F094FE2868F0BCBB46B246A946A04664
:1030E000F8BDC04610B5044C13000A0001002000D2
:1030F00001F024FC10BDC046F92E00100300083377
:1031000001224360C3600361002352428260036076
:103110007047C046002303617047C046030030B5C6
:103120000D6808336A1C0DD01C005B681A68AA423F
:10313000FAD94B60996003688C6001336160086163
:10314000036030BD04696368F3E7C0460369416802
:1031500082688A6051605968814206D0002202610B
:103160001A68013A1A60186870475A60F6E7C04654
:10317000F0B5DE464E4657464546E0B585B00600FA
:10318000FFF704FD4523F45C64B2002C21DD213BF4
:10319000994621339A46B14409E0AA6BEB6B03963A
:1031A0009A4245D3013CE3B264B2002B11D0B56C16
:1031B000002DF2D1736A002B0BD0484601F074F851
:1031C0000028EFD001F068F9013CE3B264B2002BB3
:1031D000EDD14523FF22F254FFF7E4FCFFF7D6FCC4
:1031E0004423F45C64B2002C16DD3500103504E095
:1031F000013CE2B264B2002A0ED03369002B0BD03E
:10320000280001F051F80028F2D0013C01F044F907
:10321000E2B264B2002AF0D14423FF22F254FFF755
:10322000C1FC05B0F0BCBB46B246A946A046F0BD05
:1032300053462A6CEF5CAB6B7FB29846002A14D1E0
:103240002B689B46002B2CD043460133AB637B1C81
:103250001DD16B6A002BA5D02800243001F024F882
:1032600000289FD001F018F9AEE7686803A9FFF7BE
:10327000D1F86B682A6C9B18AA686B609342E3D301
:103280002B686B6043460133AB637B1CE1D000F0DD
:10329000B7FEB84200D885E7452301377FB2EF5427
:1032A00080E7A86801F004F95B46AB604346013350
:1032B0000190AB637B1C09D16B6A002B0FD1019B82
:1032C000002B00D16EE701F0E7F87DE700F098FEF3
:1032D000B842F4D9534601377FB2EF54EFE72800E4
:1032E000243000F0E1FF0028E9D06BE7F0B5C646D6
:1032F00000B5846C82B0A26BE36B002501909A420A
:1033000004D3280002B080BCB846F0BD4523226C2F
:10331000E65CA76B76B2002A1CD0606801A9FFF7B3
:1033200079F86368226C9B18A2686360934201D3AA
:103330002368636000250137A763731C15D1636A96
:10334000002BDED02000243000F0AEFF0028D8D0C3
:103350000125D6E723689846002BEBD1A06801F041
:10336000A7F843460500A360E5E700F049FE864262
:10337000C7D24523013676B2E654C2E7F8B5050058
:103380000E001700002841D0030C0A0C002B42D17C
:10339000002A30D1300068430300553336D854300A
:1033A000FFF766FA041E31D00300002E31D12360EE
:1033B000E5632664FFF7EAFB216CE36B22684B436D
:1033C000D0185B1A6260D218E260FF230025442205
:1033D000A0602000A563A3540132A3541030FFF76E
:1033E0008DFE20002430FFF789FEFFF7DBFB502322
:1033F000E754A5640BE0131CA9B2B2B24A4380B2F1
:103400009BB24343120C9B181B0CC3D0002420001A
:10341000F8BD5433CBE7002AF8D1301CECE7C046A6
:10342000F8B54E46DE46574645460400E0B591469F
:103430001D000F00FFF7D0FBA26BE36B06009A4262
:103440002CD300239846022D09D03000FFF7C8FB8B
:103450004046F0BCBB46B246A946A046F8BD45333F
:10346000E35C226C5BB29846A36B9A46A36B9B46C7
:10347000002A3AD12768002F65D05B460133A36349
:103480004346013327D1A36C002B42D0022D4AD1F1
:103490005346002B47D001239846D6E74523E35CEB
:1034A000226C5BB29846A36B9A46A36B9B46002A9C
:1034B000E0D0002D19D139006068FEF7ABFF6368DA
:1034C000226C9B18A26863609342D6D32368636022
:1034D0005B460133D3E700F093FD8045DBD24346E2
:1034E000452201335BB2A354D5E73900E068FEF70B
:1034F00091FF226CE36851429B1A2268E360934279
:1035000002D2A3685B18E3605B46022D17D001333B
:10351000B5E7636A002BBED02000243000F0C4FE63
:10352000002805D1B7E72000FFF7E0FE0028B2D061
:103530004B46002BAFD001234A461360ABE7002B6C
:103540009DD101339BE7A06800F0B2FFA76094E72C
:10355000F0B54746CE46040080B585B08846019256
:10356000FFF714FBA76B002F5FD1019B002B3BD013
:1035700002A800F04BFF0023442699464525FFF79B
:1035800011FB00F033FCFFF701FBA35D5BB20133DD
:1035900001D14B46A355635D5BB2013301D14B466C
:1035A0006355FFF7FFFA01A902A800F03BFF0028CE
:1035B00022D1FFF7EBFAA36B002B2AD1FFF7F2FA27
:1035C00020000199243000F069FD2000FFF7D0FDB4
:1035D00000F014FC00283DD0FFF7D8FAA76B002FAD
:1035E00023D1019B002BCAD1FFF7DCFA002005B0E4
:1035F000C0BCB946B046F0BD2000FFF7B9FD00F0F1
:10360000FDFBFFF7C3FAA36B002BEDD0FFF7CAFA5F
:10361000E2E7FFF7C7FA2000FFF7AAFD00F0EEFB94
:10362000FFF7B4FAA76B002FDBD0226C002A08D07A
:10363000E168A3688918E16099420ED24046FEF71E
:10364000E9FE013FA7632369002B09D1FFF7AAFA1E
:103650000120CCE7FFF78EFABEE72168E160EDE7D5
:103660002000103000F020FE0028EFD0FFF782FA93
:10367000ECE7C04610B5002933D0424B5A6890425F
:1036800000D173E01A68002A2CD0DA68904200D189
:1036900076E09A68002A3ED05A69904200D16DE0E7
:1036A0001A69002A3DD0DA69904261D09A69002AED
:1036B0003DD05A6A904242D01A6A002A43D0DA6A50
:1036C000904257D09A6A002A43D05A6B904253D006
:1036D0001A6B002A43D0DA6B904245D09A6B002ACD
:1036E0002AD010BDDA6890424AD05A69904245D03B
:1036F0001A00DC69A0423BD05C6AA0421FD0DC6AA1
:10370000A04237D05C6BA04236D0DC6BA0422BD0FD
:1037100011605060E5E75A6990422FD01A000832D4
:10372000E7E7DA69904223D01A001032E4E75A6AD8
:10373000904204D0144AE2E738331A00E8E7042242
:10374000D2009A18E4E7DA6A904213D01A002032C5
:10375000D8E75A6B90420FD01A002832D5E71A00EA
:10376000DC6B3032A042D3D10722E9E70022E7E741
:103770000322E5E70522E3E70622E1E70222DFE78D
:103780000122DDE7C0050020D805002070B5040047
:1037900016000D00FFF7FAF94422A35C5BB2013377
:1037A00001D10023A3544522A35C5BB2013301D1B4
:1037B0000023A354FFF7F6F9A36B002B03D02000DE
:1037C000FFF7D6FC70BD200032002900243000F045
:1037D0000BFDF4E7F0B5C646124B00B59846124D06
:1037E000124F134E14E0FFF7D1F9FB68DC68201D7F
:1037F000FFF7ACFC3368013B33602B68013B2B6067
:10380000FFF7D0F9206BFFF7C9F82000FFF7C6F8E3
:103810002B68002BE7D143461B68012BF8D9FFF733
:10382000A9F9F5E7B006002064090220200A022069
:1038300060090220F0B5DE4657464E464546584BD5
:10384000E0B51A6883B0013294461A60002A5ED04F
:10385000544B1A6894456ED3534A904612681268C6
:10386000002A00D195E000220092504A504D934624
:10387000002291464F4A0193924636E049465961EB
:103880001168013911609A6A002A0DD0D969186A45
:10389000566888604160190018318E426FD04946E1
:1038A00099621168013911605246D96A12689142D1
:1038B00001D9524611608A0052189200AE18706801
:1038C00087689860DF607C6084605E61AB5801331C
:1038D000AB505B461B68DB6A994201D90123009318
:1038E00043461B681B68002B4ED043461B68DB68B1
:1038F000DB685A68944544D35A699868D9681C1D96
:10390000816048605068A042B8D15160B6E7264B4C
:10391000294A196810681860116028490A6801323C
:103920000A601A681268002A23D11E4B013A1A60F5
:103930001A68944590D2002300931C4B1C4D9B4663
:103940005B461B68DA6A93009B189B00EB58012BBF
:1039500001D9012300931A4B1B68002B01D00123CE
:103960000093009803B0F0BCBB46B246A946A046FF
:10397000F0BD1B68DB681A680A4B1A6069E7506083
:103980008DE7019B1A60DBE7019B012252421A601E
:10399000D6E700220092054A054D9346F5E7C0465A
:1039A000340A0220D8090220A00600209806002030
:1039B000B006002070090220A8060020DC090220C1
:1039C000400A0220F8B5CE464746960080B58046AC
:1039D00030000D009946FEF74BFF071E00D1B7E0FF
:1039E0007020FEF745FF041E00D1AEE070220021DA
:1039F000FEF70AFD320038002763A521FEF704FD1B
:103A00000723276B043EBF199F43002D4BD0342260
:103A10002B78A354002B43D06B780132A354002B96
:103A20003ED0AB780132A354002B39D0EB78013271
:103A3000A354002B34D02B790132A354002B2FD068
:103A40006B790132A354002B2AD0AB790132A354F5
:103A5000002B25D0EB790132A354002B20D02B7AF8
:103A60000132A354002B1BD06B7A0132A354002BDC
:103A700016D0AB7A0132A354002B11D0EB7A01326D
:103A8000A354002B0CD02B7B0132A354002B07D066
:103A90006B7B0132A354002B02D04223AA7BE25459
:103AA00043230022E254089D1F2D57D8261D3000C5
:103AB000E562E564FFF72EFB20001830FFF72AFBD4
:103AC00020235B1BA3614A4641463800246164629F
:103AD000FFF740F8099B2060002B00D01C60FFF727
:103AE00055F83E4A1368013313603D4B98461B68F6
:103AF000002B43D03B4D2B68002B31D0E26A3A4F6C
:103B00003A490B6801330B606364394B1968914281
:103B100000D21A6093009B189B00F9184A689068BD
:103B2000A260E06046609660FA5861610132FA5026
:103B3000FFF738F82B68002B05D043461B68DA6A7C
:103B4000E36A9A4216D3012004E03800FEF726FF0C
:103B500001204042C0BCB946B046F8BD1F25A5E7CC
:103B600043461B68E26ADB6A934201D843461C6005
:103B70001D4FC5E7FEF7FEFF0120EBE743461C6043
:103B80001368012B03D0E26A174F164DB8E7A02344
:103B9000154F9B0099463D00B94428001435FFF7A6
:103BA000ADFAA945F9D1134B99461800FFF7A6FACB
:103BB000114D2800FFF7A2FA1048FFF79FFA1048AE
:103BC000FFF79CFA0F48FFF799FA4A460E4B1A6026
:103BD0000E4BE26A1D60034D92E7C0466009022069
:103BE00098060020000A0220B00600206C0902207E
:103BF000700902209C090220B0090220EC09022071
:103C0000200A02200C0A0220A0060020A80600209C
:103C1000F8B58020CE464746C00080B5FEF728FEA6
:103C2000051E6BD07020FEF723FE041E6CD07022A0
:103C30000021FEF7E9FB8022A52128002563D200A0
:103C4000FEF7E2FBFF239B009C460723256B3822EF
:103C500065449D43524B271D63630023A3540B32DD
:103C6000A3543800E362E364FFF754FA20001830ED
:103C7000FFF750FA202300224A49A361280024615B
:103C80006462FEF767FF484B20601C60FEF77EFF12
:103C9000464A136801331360454B98461B68002B56
:103CA00040D0444D2B68002B32D0E26A424E43494B
:103CB0000B6801330B606364414B1968914200D279
:103CC0001A6093009B189B00F1184A689068A260E4
:103CD000E06047609760F25861610132F250FEF790
:103CE00061FF2B68002B05D043461B68DA6AE36A44
:103CF0009A4220D300F0DCFD01281FD0314B1B6815
:103D0000C0BCB946B046F8BD2800FEF747FEF5E74F
:103D100043461B68E26ADB6A934201D843461C6053
:103D2000254EC4E743461C601368012B12D0E26A9B
:103D3000214E204DBBE7FEF71DFFDBE772B60122E7
:103D4000214B52421A600022204B28601A60FEF775
:103D500077FFD3E7A023184E9B0099463500B14466
:103D600028001435FFF7CAF94D45F9D1184B99468B
:103D70001800FFF7C3F9174D2800FFF7BFF91648E1
:103D8000FFF7BCF91548FFF7B9F91548FFF7B6F981
:103D90004A46144B1A60144BE26A1D60054D86E7D3
:103DA00049444C45D5370010CC0902206009022057
:103DB00098060020000A0220B00600206C090220AC
:103DC000700902206C020020D8090220340A022067
:103DD0009C090220B0090220EC090220200A0220DE
:103DE0000C0A0220A0060020A8060020024A136840
:103DF000013313607047C04668090220F0B5DE4603
:103E000057464E464546E0B583B0FEF7BFFE514CDF
:103E10002368013B23602368002B7FD14E4B1B6836
:103E2000002B7BD04D4B9C461B68002B00D18EE0B5
:103E30004B4B4C4D98464C4B019499464B4B9A46F4
:103E400000239B466346DB68DB68D869196A9A6A77
:103E500081604860180056681830864200D170E0D2
:103E6000594699621168013911605A699868D96890
:103E7000566881604860181D864260D0116801391B
:103E800011604146DA6A09688A4201D941460A60EE
:103E9000910089188C002E1971688F689960DF6015
:103EA000786088605E612B5901332B514B461B684B
:103EB000DB6A9A423DD9534601221A6063461B6869
:103EC000002BBFD12A4B019C1A681268002A3AD0F5
:103ED0001B68DB681A68274B1A60274E3568002D6F
:103EE00014D0012708E0FFF7A5FC002801D05346B5
:103EF0001F60013D002D08D02368002BF3D03368EC
:103F0000013D01333360002DF6D1356053461B6807
:103F1000002B03D0FEF72EFE012400E00024FEF764
:103F200041FE200003B0F0BCBB46B246A946A04605
:103F3000F0BD63461B68002B00D083E7C2E75160E9
:103F40009CE751608CE70B4B013A1A60C5E7074BC1
:103F50009A46C2E76809022060090220EC090220A3
:103F600070090220B006002098060020400A0220B6
:103F7000A0060020D8090220E809022070B5041E1E
:103F80001DD0164A136801331360154B00211E68BB
:103F90006D23144DA4192A682868D1540430FFF702
:103FA000D5F82B685C60A6420CD90F4B18682968BD
:103FB0000431FFF7B3F8FFF721FF002801D1FEF726
:103FC000D9FD70BD094B186829680431FFF7A6F8C0
:103FD000074B1A689442EED21C60ECE76809022095
:103FE000340A022098060020A8060020A00600201F
:103FF000D8090220014B18687047C046340A0220D5
:10400000014B18687047C04660090220064B10B586
:104010001B68002B02D1FFF70DFC10BD034A0020E6
:10402000136801331360F8E768090220E8090220E9
:10403000154B30B51B68002B03D00122134B1A60BF
:1040400030BD124A124C13602368124800E0013B55
:104050009900CA1892008258002AF8D0C91889001D
:1040600045186A680831526840186A60824204D074
:10407000D168094A11602360E2E7EA68D1686A60A2
:10408000054A11602360DBE768090220400A02202C
:1040900070090220B00600209806002070B51E4D61
:1040A0000C0029681831FFF739F81C4B00211E68F5
:1040B0006D232A682868D1540430FFF747F8631C41
:1040C00017D02B68A4195C60A64206D9144B186857
:1040D00029680431FFF722F870BD124B186829686F
:1040E0000431FFF71BF8104B1A689442F4D21C609D
:1040F000F2E70E4B29685A688A6090682968C860A0
:104100002968043141602968043191602A6853614B
:104110001A6801321A60DFE798060020340A02208C
:10412000A8060020A0060020D80902200C0A0220C0
:10413000802370B5264C15001B0622680B43936143
:10414000226843689968D361226811622268183234
:104150004A602268002118329A60236898620368D6
:10416000013303601B4B1E686D2322682068D15405
:104170000430FEF7EBFF6B1C17D02368AD195D60B0
:10418000AE4206D9144B186821680431FEF7C6FF09
:1041900070BD124B186821680431FEF7BFFF104B49
:1041A0001A689542F4D21D60F2E70E4B21685A68F6
:1041B0008A6090682168C860216804314160216884
:1041C00004319160226853611A6801321A60DFE796
:1041D00098060020340A0220A8060020A00600202D
:1041E000D80902200C0A022070B5294C43680D0042
:1041F00021689E68CB6121680E6221681831716068
:10420000216818319960236898620368013303605C
:10421000204B002A1BD01B6800216D2322682068D8
:10422000D1540430FEF792FF1B4B21685A688A6014
:1042300090682168C86021680431416021680431B8
:104240009160226853611A6801321A6070BD1E685D
:104250006D2321682068CA540430FEF777FF236875
:10426000AD195D60AE420BD80C4B18682168043163
:10427000FEF754FF0A4B1A689542E7D21D60E5E746
:10428000084B186821680431FEF748FFDEE7C04696
:1042900098060020340A02200C0A0220A006002002
:1042A000D8090220A8060020C368F0B5DB68D869E9
:1042B000196A9A6A8160486018005468183084420C
:1042C00042D000219962116801391160244A1268B4
:1042D000002A2AD15A699868D9681D1D81604860F2
:1042E0005068A84232D01168013911601D4AD96A5C
:1042F0001068814226D88A001B48521892008618FE
:104300007468A7689C60DF607D60A5605E6183580B
:1043100001338350154B00201B68DB6A8B4203D2AC
:104320000122134B01301A60F0BD124A51688C68AB
:10433000D9611C626060886011689A620131116005
:10434000D96AE7E71160D6E75160BAE751601168B2
:1043500001391160034AD96A10688142CBD9F1E76B
:104360006809022070090220B0060020980600208B
:10437000400A0220EC09022080231B06F0B50269E6
:1043800044680B4381680360C368A1604C60546853
:1043900084422ED0002101611168986801391160B2
:1043A0005A69D9681D1D816048605068A84222D0B2
:1043B0001168D86A01391160104A1168884200D921
:1043C000106082000E49121892008E187468A76857
:1043D0009C60DF607D60A5605E618B5801338B500F
:1043E000084B1B68DB6A984202D90122064B1A600F
:1043F000F0BD5160CEE75160DAE7C0467009022097
:10440000B006002098060020400A0220034B1B68DB
:104410000360034B1B6843607047C046DC09022001
:10442000340A0220F0B5C64600B504000E00FEF7BF
:10443000ADFB6D231548164A076815686168ED5C89
:10444000002D09D000211268D1540124FEF7AAFBE7
:10445000200080BCB846F0BD33685A1C14D00D4A09
:104460001568A8462568454504D0B94202D80023FE
:104470003360EAE77D1AAB42F9D9DB1B5B18336086
:1044800013682360036863600024DFE7340A0220B6
:1044900098060020DC0902200122014B1A607047B7
:1044A000400A0220014B18687047C0469806002059
:1044B00070B5041E08D0036DC16AC26C013B036570
:1044C000914201D0002B01D0002070BD051D2800B5
:1044D000FEF73CFE2023E26C9B1AA3610B4BE262C9
:1044E00019688A4200D91A60094993009B180A008A
:1044F0009B00C81841688E68A160E66075608D6099
:10450000D158606101310120D150DEE770090220ED
:10451000B0060020044B1A68196890691A682023B5
:10452000C96A5B1A9361704798060020F0B5574638
:10453000DE464E464546E0B5C84A8BB00392282277
:10454000C74BC84F0193C84BB9469A46C74B9346D1
:104550001F004B461B681D68002D00D1A0E0DB68E2
:104560001D68FFF743FCFFF745FD019B02901B68A8
:10457000834200D9A6E0019A1060854200D848E144
:104580000022029B3868E91AFFF700F9FFF736FCB2
:10459000002800D12FE10022386806A9FEF7D8FFD5
:1045A0000028D6D0069B002B71DB089C6369002B8A
:1045B00002D0201DFEF7CAFDFFF71CFD019B050080
:1045C0001B68984200D2CAE0019B1D60069B092B24
:1045D000E1D8039A9B00D3589F465B46E05C0123D9
:1045E0005A460343A3540799A26924618B18636058
:1045F000AB4200D902E1691A8A4231D8410710D48E
:10460000012398435B46E0542000236A9847C2E7A1
:10461000EB1A934200D216E1236A20009847330038
:10462000A2699E1866602461B542F1D29D4201D212
:10463000B342F1D94B46211D1868FEF76FFDE3E741
:104640005B460122E35C13435A46A354079B246153
:104650005A19A3616260AA4200D9D4E0002B9AD013
:104660005346211D1868FEF759FD94E75B46012269
:10467000E35C93435A46A3548DE75B46E35C9A0799
:1046800000D4DCE0012293435A46A35483E7079BFE
:10469000099908989847069B002B00DA7BE784E786
:1046A000FFF7A4FBFFF7A6FC019B02001B6802902A
:1046B000834207D8019B1A6053461B681A6853420D
:1046C0005A415EE74B461B681A68002A3BD0042219
:1046D000049790460BE0012293435A46A354236A61
:1046E000200098474B461B681A68002A2AD0DB68CE
:1046F000DC681E68271D3800FEF728FD5B46424631
:10470000E35C1A42E7D0A3692461F518F6436560BB
:10471000B3420AD82E00F643236A20009847A369C3
:104720002461ED186560B342F4D953463900186826
:10473000FEF7F4FC236A200098474B461B681A6872
:10474000002AD4D1049F5246494612680A60524654
:104750001360019B029A1A60FFF750FB1BE74B4660
:104760001B681A68002A3FD00422029490460490E5
:1047700005970BE0012293435A46A354236A200075
:1047800098474B461B681A68002A2AD0DB68DC6809
:104790001E68271D3800FEF7D9FC5B464246E35CE5
:1047A0001A42E7D0A3692461F518F6436560B34265
:1047B0000AD82E00F643236A20009847A369246193
:1047C000ED186560B342F4D9534639001868FEF716
:1047D000A5FC236A200098474B461B681A68002AEC
:1047E000D4D1029C049D059F5246494612680A6036
:1047F00052461360E8E6FEF7BDF9CCE6A94202D9BD
:10480000994200D8FAE64B46211D1868FEF786FC4F
:10481000C1E6FFF7F3FA4B461B68DB68DE68341D20
:104820002000FEF793FC5B46F35C5A0711D401228B
:1048300093435A46B3543000336A9847ABE620009E
:10484000FEF7ACF8A7E65346211D1868FEF766FC94
:10485000DAE6A0462B00029C11E0C046884B00100F
:10486000D00902209C060020AC060020380A022055
:10487000E31A9A4214D8336A300098472B00B26981
:1048800036619D187560A542F2D9A34201D9AB42A9
:10489000F1D944464B4621001868FEF73FFCCAE7B1
:1048A0004446534621001868FEF738FCC3E7C0466B
:1048B00070B582B0FEF76AF9174C2368002B12D04E
:1048C000FEF770F923680020002B0AD0134B8022DA
:1048D00001931F231249009312480023D200FFF7CF
:1048E00071F802B070BD104E3000FEF707FC0F4D9E
:1048F0002800FEF703FC0E4B00221E600D4B10211A
:104900000A201D60FEF73AFD20600028D8D00A4931
:10491000FEF7B0FED4E7C046380A02203C0A022067
:10492000B84B00102D4500107409022088090220A0
:104930009C060020AC060020B04B001010B51400FF
:104940001A00022384B05B420093054B0190029150
:104950001868694600230394FEF762FD04B010BD99
:10496000380A0220F8B50D00EFF3108772B60C4B31
:1049700010309B6884001E59B14204D0094B9E42FE
:104980000AD2FDF7F7F9064B9B681D51BFF35F8F05
:1049900087F310883000F8BD034B9E42F3D3F0E755
:1049A00000ED00E0C0010010CC01001010B583073D
:1049B0000AD00300032102E001330B4205D01A782C
:1049C000002AF9D1181A10BD030019680C4A0D4CC1
:1049D0008A188A4322420FD15968094A04338A1837
:1049E0008A43224208D15968054A04338A188A4307
:1049F0002242F1D000E001331A78002AFBD1E1E72E
:104A0000FFFEFEFE80808080F8B5C04600000000FA
:104A100001B40248844601BC604700BF6101002028
:104A200001B40248844601BC604700BF81010020F8
:104A300001B40248844601BC604700BF81010020E8
:104A400001B40248844601BC604700BFC100002099
:104A50000A48656C6C6F2C207561727420696E74E5
:104A6000657272757074730A0000000034470000AC
:104A70004C45445F5461736B0000000048617264F0
:104A80007761726520616C61726D20256420616CB4
:104A9000726561647920636C61696D656400000012
:104AA0000A2A2A2A2050414E4943202A2A2A0A004B
:104AB0000A0000006E6F7420737570706F727465F9
:104AC0006400000048617264206173736572740051
:104AD00052656C6561736500626F6F74325F773227
:104AE0003571303830000000312E352E3100000095
:104AF0007069636F000000007270323034302D66D0
:104B000072656572746F732D74656D706C61746518
:104B1000000000004A616E20333120323032340010
:104B200006005250D3F07542D04A00100600525091
:104B3000E182887FD84A001006005250BBFF3CB685
:104B4000F04A00100D0A000055415254207374645D
:104B5000696E000055415254207374646F7574007F
:104B60005541525420737464696E202F207374640D
:104B70006F7574000600525053B4F4A1604B0010DE
:104B8000080052509200000096450010DA450010CF
:104B9000DA4500106C460010404600107A460010BE
:104BA000DA450010DA4500106C460010404600104F
:104BB000546D725100000000546D722053766300F2
:104BC000204B00102C4B001088020010384B0010B6
:104BD00094020010A0020010AC020010804B0010E4
:044BE000744B001002
:104BE400F0B5C646160000B504001F000268EFF3D6
:104BF400108872B61368002BFCD0BFF35F8F656812
:104C04006B1C0ED02368BFF35F8F00221A6088F3F9
:104C1400108800F059F8A8420FD1002080BCB84693
:104C2400F0BD00F051F823686060BFF35F8F00228D
:104C34001A6088F310880120F0E700F045F88046F8
:104C440006E032003B00200000F036F80028E4D1F2
:104C54002268EFF3108172B61368002BFCD0BFF307
:104C64005F8F65680135ECD1434663602368BFF309
:104C74005F8F00221A6081F310880120CEE7C046BE
:104C840010B50268EFF3108172B61368002BFCD0E4
:104C9400BFF35F8F01235B42436000F005F810BD52
:104CA4007047C0460000000001B40248844601BCBD
:104CB400604700BF0D2D001001B40248844601BCBA
:104CC400604700BFD52D001001B40248844601BCE2
:104CD400604700BFE12C001010000000000000003D
:104CE40000000100000000000000000000000200BD
:104CF40000000000000000000000030000000000AD
:104D0400000000000000FF000000000001B548683A
:104D140001318E460047704609380149884701BD74
:104D2400750800101C02002000000000C0020020D2
:104D340038060020000000000000000048060020A3
:104D4400000000000000000010000000000000004F
:104D5400503300004C330000543300005233000041
:104D64004D5300004D430000533400004334000011
:104D74009126001000000000DD2600109D27001081
:104D84000000000000010000FF0000001F00000000
:104D9400000000000000000000000000000000000F
:104DA400F9230010C11D0010A52200106923001072
:084DB40031030010D12E0010A4
:04000005100001E9FD
:00000001FF
